:100000000C9409010C9431010C9431010C943101D0
:100010000C9431010C9431010C9431010C94310198
:100020000C9431010C9431010C9464080C94D308A5
:100030000C9431010C9431010C9431010C94310178
:100040000C9431010C9431010C9431010C94310168
:100050000C9431010C9431010C9431010C941A0868
:100060000C9431010C9431010C9431010C94310148
:100070000C9431010C9431010C9431010C94310138
:100080000C9431010C9431010C9431010C94310128
:100090000C94050B0C9431010C9431010C9431013A
:1000A0000C9431010C9431010C943101080B0002C5
:1000B0000202000009040000010202000005240001
:1000C0001001052401010104240206052406000193
:1000D0000705810310004009040100020A00000026
:1000E00007050202400000070583024000000403E8
:1000F000090412010002EF02014041233680000191
:100100000102030141726475696E6F204C4C43001B
:100110004861636B4D616E334420436F6E74726F40
:100120006C204465636B20506C7573004843445FDA
:1001300052454144597C004843445F494E464F7CF8
:10014000004843445F4C45445F484F4C447C004862
:1001500043445F504F4E4700555000444F574E00A8
:100160004843445F4B45597C00555000444F574E1F
:10017000004843445F504F545F425554544F4E7CA7
:10018000004843445F504F547C00070605040100BB
:10019000080A0B0C0D090000000200090F00000303
:1001A0000401000C0000000000000000000000003E
:1001B000000000000000000000250028002B002E99
:1001C00000310000000000240027002A002D00302C
:1001D00000040404040403040502020202040302EE
:1001E00002020206060606060604040202020404CF
:1001F0000408020110408040102040804080080226
:100200000401804020100201108010204040200096
:10021000570C11241FBECFEFDAE0DEBFCDBF23E0C5
:10022000A0EAB1E001C01D92A23AB207E1F711E0E5
:10023000A0E0B1E0E8E4F3E202C005900D92A03A3C
:10024000B107D9F711E0C9E0D1E004C02197FE0160
:100250000E948511C830D107C9F70E94780C0C9410
:10026000A2110C94000090E0FC01E051FE4F24919B
:100270008F529E4FFC018491882399F090E0880F63
:10028000991FFC01ED53FE4FA591B491FC01EB5475
:10029000FE4F859194918FB7F894EC91E22BEC93FB
:1002A0008FBF0895FC018091F302882311F13FB7BD
:1002B000F89482E08093E9002091F200822F90E090
:1002C0001816190614F481E090E0882339F0289874
:1002D00044E64093F2024091F1004083222339F03A
:1002E0002091F200211103C02BE62093E8003FBFCC
:1002F00008958FEF9FEF08952FB7F89483E08093D0
:10030000E9009091E800892F807295FF04C09091D8
:10031000F20080E4891B2FBF08958091EA028111C9
:100320000DC082E08093E60284E08093E7021092A1
:10033000E9021092E80281E08093EA0286EE92E000
:100340000895282F30E0F901EA56FE4F9491F90103
:10035000E051FE4F84912F523E4FF9012491222308
:1003600009F430C09923E9F091509F30D0F4E92F7F
:10037000F0E0E354FE4F0C948511EB01EF01CC014A
:10038000E301E701D101D101D101F201F801FC0142
:1003900000020602D1010A02909180009F7790939B
:1003A0008000E22FF0E0EE0FFF1FEB54FE4FA5910F
:1003B000B4919FB7F894EC91611132C080958E236F
:1003C0008C939FBF0895909180009F7DE8CF90917E
:1003D0008000977FE4CF94B59F7794BDE2CF94B52A
:1003E0009F7DFBCF909190009F7790939000D9CF05
:1003F000909190009F7DF9CF90919000977FF5CFDD
:100400009091C0009F779093C000CBCF9091C00097
:100410009F7DF9CF9091C200977F9093C200C1CF8A
:100420008E2BCECF823108F08251E82FF0E0E657D4
:10043000FE4FE49190917B008E2F880F880F807281
:100440009F7D892B80937B00E770E064E0937C00C4
:1004500080917A00806480937A0080917A0086FD92
:10046000FCCF809178009091790008953FB7F8947F
:100470008091E2029091E302A091E402B091E50242
:1004800026B5A89B05C02F3F19F00196A11DB11DEF
:100490003FBFBA2FA92F982F8827BC01CD01620F2B
:1004A000711D811D911D42E0660F771F881F991FE6
:1004B0004A95D1F70895CF92DF92EF92FF920E9472
:1004C00036026B017C010E9436026C197D098E098F
:1004D0009F09683E734081059105A8F3FF90EF9056
:1004E000DF90CF9008952FB7F8946091DE0270915D
:1004F000DF028091E0029091E1022FBF08950895FC
:10050000089540910B0250910C0220910902309104
:100510000A0242175307B4F49091E8009570E1F392
:100520009091E80092FD19C08093F10080910B0238
:1005300090910C0201968F739927892B19F48EEFF5
:100540008093E80080910B0290910C0201969093A9
:100550000C0280930B0281E0089580E00895DF9201
:10056000EF92FF920F931F93CF93DF93D82E8A01C0
:10057000EB017B01E40EF51ECE15DF0559F0D7FE29
:1005800012C0FE0184910E94810221968111F4CF54
:100590000FEF1FEFC801DF91CF911F910F91FF90D7
:1005A000EF90DF9008958881EECF0F931F93CF9344
:1005B000DF931F92CDB7DEB782E0898342E450E03B
:1005C0006CEA70E080E80E94AF020E948D01DC01BD
:1005D00012960D911C910115110589F0D801ED912C
:1005E000FC910280F381E02DBE016F5F7F4FC80157
:1005F000099597FD04C0F80100851185ECCF89812C
:100600000F90DF91CF911F910F910895615030F0BD
:100610002091F100FC0120830196F8CF289884E610
:100620008093F20208958F929F92AF92BF92CF92E1
:10063000DF92EF92FF920F931F93CF93DF936C01A2
:100640007B018A0180910B01882309F458C08091B5
:10065000F302882309F453C080910F0280FF05C084
:100660008091E00082608093E000E801B12C8AEF85
:10067000A82E93E0892E2AE3922E209711F4BB2016
:10068000B9F10E947C01811106C0AA94AA20B9F197
:100690000E945B02F2CF8C171D0611F00CF08C2F1C
:1006A0009FB7F8948092E9002091E80025FD02C0F0
:1006B0009FBFE3CF282F30E0C21BD30BF70181503F
:1006C00020F041914093F100FACFE20EF31EBB20DF
:1006D00021F09092E800B12CEBCF8091E80085FDED
:1006E000E7CF9092E800BB24B394209709F3F3CFAF
:1006F0005D9884E680930E02101611063CF081E0AE
:1007000090E0F6019383828310E000E0C801DF915E
:10071000CF911F910F91FF90EF90DF90CF90BF90FE
:10072000AF909F908F900895CF93DF931F92CDB796
:10073000DEB76983DC01ED91FC910280F381E02D4D
:1007400041E050E0BE016F5F7F4F09950F90DF9150
:10075000CF9108950F931F93CF93DF938C01D0E037
:10076000C0E0F801EC0FFD1F6491662341F084E4C2
:1007700093E00E949403892B11F02196F2CFCE01D1
:10078000DF91CF911F910F9108956CE784E493E07E
:100790000C94940383E08093E9008091F200882315
:1007A00019F08AE38093E80008950E947C0190E0AC
:1007B0000895CF93DF931F92CDB7DEB7FC018485F8
:1007C000958597FD08C02FEF3FEF358724870F9061
:1007D000DF91CF910895CE0101960E9452010197B9
:1007E00019F4898190E0F3CF8FEF9FEFF0CF0F9353
:1007F0001F93CF93DF931F92CDB7DEB78C01FC011F
:100800008485958597FF0BC0CE0101960E94520109
:10081000019771F4898190E0F80195878487F80148
:10082000848595850F90DF91CF911F910F91089549
:100830008FEF9FEFF1CFFC018485958597FD0BC06D
:100840009FB7F89482E08093E9008091F2009FBF07
:1008500090E0019608959FB7F89482E08093E900B4
:100860008091F2009FBF90E008952091E601260F4D
:100870003327331F21323105ECF420911A03FC0198
:1008800090E080E0243069F082E00895A091E601D4
:100890002191AC014A535E4FA40FB52FB11D2C938B
:1008A0000196861798F38091E601680F6093E60140
:1008B00080E0089581E0089510921A0381E080930A
:1008C00019031092F40261E082E00E94A10161E04C
:1008D00083E00E94A101E9EBF0E080818E7F8083BC
:1008E00080818D7F808388E48093B80085E4809345
:1008F000BC000895CF93DF9391E09093C5018823C6
:10090000B9F0C091B800D091BA008091BC008A7B48
:100910008093BC0060E082E00E94A10160E083E07F
:100920000E94A1010E945C04D093BA00C093B80059
:10093000DF91CF9108958F929F92AF92BF92CF9205
:10094000DF92EF92FF920F931F93CF93DF93D0919B
:100950004303D13208F0D7C0182FC09142030E9440
:1009600036026B017C0180911A0381116BC082E019
:1009700080931A03109319038FEF8093180310923A
:100980001703D0931603A2E2B3E0E6EFF2E080E0B3
:10099000D81391C01092F5028091F502CC0FC82BAC
:1009A000C093F5028091F402813009F088C0109262
:1009B000F4020E9436026B017C018091F502809363
:1009C000BB0080911C0390911D03A0911E03B09168
:1009D0001F03892B8A2B8B2BA1F00E9436020091DA
:1009E0001C0310911D0320911E0330911F036C19ED
:1009F0007D098E099F09061717072807390708F48C
:100A000042C08091BC0083FDD8CF85EC8093BC00B0
:100A10000E9436026B017C0180911A03823009F436
:100A200050C0809118038F3F09F46FC08091180364
:100A3000803209F46CC080911803803309F469C0D6
:100A400084E026C080911C0390911D03A0911E0399
:100A5000B0911F03892B8A2B8B2B09F484CF0E9422
:100A6000360280901C0390901D03A0901E03B0904E
:100A70001F036C197D098E099F0986169706A80623
:100A8000B90608F070CF80911B030E947A0485E0BC
:100A9000109221031092430310922003DF91CF9113
:100AA0001F910F91FF90EF90DF90CF90BF90AF908C
:100AB0009F908F9008959D9191938F5F69CF85EE60
:100AC000A5CF80911C0390911D03A0911E03B091AE
:100AD0001F03892B8A2B8B2B09F49ECF0E94360291
:100AE00000911C0310911D0320911E0330911F03E0
:100AF0006C197D098E099F09061717072807390702
:100B000008F08ACFC0CF81E0C3CF80E0C1CF82E0C0
:100B1000BFCF83E0BDCF0895E09117028091160208
:100B2000E81730F4F0E0EB55FE4F808190E0089537
:100B30008FEF9FEF089590911702809116022FEF8B
:100B40003FEF981748F4E92FF0E0EB55FE4F208176
:100B500030E09F5F90931702C901089580911602BB
:100B600090911702891B990B0895CF92DF92EF9213
:100B7000FF920F931F93CF93DF937C01CB018A01E8
:100B800020912003222389F0EB016B01C40ED51EB6
:100B9000CC15DD0569F06991D701ED91FC910190CB
:100BA000F081E02DC7010995F3CF642F0E94350431
:100BB000C801DF91CF911F910F91FF90EF90DF90CF
:100BC000CF900895CF93DF931F92CDB7DEB769839F
:100BD000209120032223F9F020914303203258F082
:100BE00021E030E0FC013383228390E080E00F902D
:100BF000DF91CF91089580912103E82FF0E0EE5D21
:100C0000FC4F998190838F5F8093210380934303EE
:100C100081E090E0ECCF61E0CE0101960E943504C6
:100C2000F7CF90E080E00895CF93C62F91E09093A6
:100C3000200390E290934203109221031092430309
:100C4000682F84E993E00E94E2056C2F84E993E029
:100C50000E94E20581E00E949B0491E0811190E0F6
:100C6000892FCF910895CF92DF92EF92FF920F9349
:100C70001F938091A401882319F1809111028111A1
:100C80001EC00E9473020091A0011091A101209149
:100C9000A2013091A3016B017C01C01AD10AE20AC2
:100CA000F30A9701860140910C0150910D0170E00B
:100CB00060E081E0041715072607370708F080E099
:100CC0009091790260E0992329F090911102682FA8
:100CD000911161E081E01F910F91FF90EF90DF9003
:100CE000CF900C94A1018091800291E0811101C00C
:100CF00090E090931102882369F081E08093A40131
:100D00000E9473026093A0017093A1018093A201DD
:100D10009093A3010C943306FC0101900020E9F7A5
:100D20003197AF01481B590BBC0184E493E00C944C
:100D30001303CF93DF930E94AA03EC0184E791E0B1
:100D40000E948C068C0F9D1FDF91CF9108958F928A
:100D50009F92AF92BF920F931F93CF93DF93CDB724
:100D6000DEB7A1970FB6F894DEBF0FBECDBF19A2B4
:100D7000423008F44AE08E010F5D1F4F842E912C03
:100D8000B12CA12CA50194010E941211E62FB901EA
:100D9000CA01EA30F4F4E05DD801EE938D01232B13
:100DA000242B252B79F790E080E0109719F0CD01E6
:100DB0000E948C06A1960FB6F894DEBF0FBECDBF81
:100DC000DF91CF911F910F91BF90AF909F908F9027
:100DD0000895E95CE1CFCF92DF92EF92FF920F93FB
:100DE0001F93CF9380917F028823B9F081E0809395
:100DF000200380E280934203109221031092430368
:100E000062E184E993E00E94E20580E00E949B0495
:100E1000C82F882329F010927F028FEF9FEFA4C084
:100E20000E9436026B017C0180911A03811163C01C
:100E300081E080931A03809319039FEF9093180326
:100E400010921703809316038093F5028091F502A8
:100E500080648093F5028091F402813009F08CC0A7
:100E60001092F4020E9436026B017C018091F5021F
:100E70008093BB0080911C0390911D03A0911E03E1
:100E8000B0911F03892B8A2B8B2BA1F00E94360275
:100E900000911C0310911D0320911E0330911F032C
:100EA0006C197D098E099F0906171707280739074E
:100EB00008F442C08091BC0083FDD8CF85EC8093BC
:100EC000BC000E9436026B017C0180911A038130C4
:100ED00009F454C080911703823008F071C08091EA
:100EE0001703A6EFB2E0E5EAF1E0C81749F19D91DA
:100EF0009193CF5FFACF80911C0390911D03A09135
:100F00001E03B0911F03892B8A2B8B2B09F48CCFE6
:100F10000E94360200911C0310911D0320911E03B4
:100F200030911F036C197D098E099F090617170759
:100F30002807390708F078CF80911B030E947A04B4
:100F400010921702C0931602C23009F064CF84E9F0
:100F500093E00E949B05C82F84E993E00E949B05C3
:100F600020E0382FC9018C2BCF911F910F91FF905A
:100F7000EF90DF90CF90089585EEA1CF80911C0374
:100F800090911D03A0911E03B0911F03892B8A2B02
:100F90008B2B09F49ACF0E94360200911C0310910A
:100FA0001D0320911E0330911F036C197D098E09CA
:100FB0009F09061717072807390708F086CFBCCF07
:100FC00082E08FCF85ED8093BC0080911C039091CF
:100FD0001D03A0911E03B0911F030796A11DB11D13
:100FE00023E0B695A795979587952A95D1F72091F7
:100FF000BC0024FD03C010921A03089540911C0305
:1010000050911D0360911E0370911F03452B462BC9
:10101000472B69F30097A105B10541F02AE22A9513
:10102000F1F700C00197A109B109E1CF80911B033D
:101030000C947A041F920F920FB60F9211242F93E3
:101040003F938F939F93AF93BF938091DE029091D4
:10105000DF02A091E002B091E1023091DD0223E0D5
:10106000230F2D3758F50196A11DB11D2093DD02E8
:101070008093DE029093DF02A093E002B093E1023E
:101080008091E2029091E302A091E402B091E50226
:101090000196A11DB11D8093E2029093E302A093FB
:1010A000E402B093E502BF91AF919F918F913F9180
:1010B0002F910F900FBE0F901F90189526E8230FC9
:1010C0000296A11DB11DD2CF1F920F920FB60F92A3
:1010D00011248F939F938091E1009091E100937F81
:1010E0009093E10083FF0FC01092E90091E090938C
:1010F000EB001092EC0092E39093ED001092F3025B
:1011000098E09093F00082FF22C093E09093E90072
:101110009091F200992319F09AE39093E80090914E
:101120000E02992341F090910E02915090930E027D
:10113000911101C05D9A9091F202992341F0909132
:10114000F20291509093F202911101C0289A84FF0B
:1011500018C08091E2008E7E81608093E2008091D1
:10116000E1008F7E8093E10080910F028E7E80618E
:1011700080930F029F918F910F900FBE0F901F9041
:10118000189580FFF7CF8091E2008E7E806180937A
:10119000E2008091E1008E7E8093E10080910F0259
:1011A0008E7E8160E5CF1F920F920FB60F921124B1
:1011B000CF92DF92EF92FF920F931F932F933F9363
:1011C0004F935F936F937F938F939F93AF93BF934F
:1011D000EF93FF93CF93DF93CDB7DEB76C97DEBF6E
:1011E000CDBF1092E9008091E80083FF25C068E040
:1011F000CE0145960E94060382EF8093E8008D8918
:1012000087FF39C09091E80090FFFCCF982F90762F
:1012100009F034C19E894F89588D2F89F88C91111E
:1012200031C0803861F5809110028093F1001092F6
:10123000F1008EEF8093E8006C960FB6F894DEBF55
:101240000FBECDBFDF91CF91FF91EF91BF91AF91D5
:101250009F918F917F916F915F914F913F912F91CE
:101260001F910F91FF90EF90DF90CF900F900FBEE6
:101270000F901F9018959EEF9093E800C7CF1092A3
:10128000F100D5CF913059F48111D3CF41305105C0
:1012900081F6809110028D7F80931002CACF933027
:1012A00049F48111C6CF4130510519F680911002E1
:1012B0008260F2CF953041F48091E80080FFFCCF4E
:1012C00020682093E300B5CF963009F0A9C00B8DBC
:1012D0001C8D22E01092E90010920C0210920B0279
:1012E000F2122EC010920A02109209020E94D50238
:1012F0001F8299E09983FA8291E09E8390EA988711
:101300009AEF998720910B0230910C02275F3F4F93
:101310003C832B838D831092E90010920C02109273
:101320000B0210930A020093090249E050E0BE014B
:101330006F5F7F4F80E00E94AF020E94D50279CF9D
:1013400010930A02009309020E948D01DC0112969B
:101350000D911C910115110509F451C1D801ED91B0
:10136000FC910480F581E02DBE016B5E7F4FC801CA
:101370000995009709F03EC1F80100851185EACF73
:10138000F3E0FF120EC08F89882309F440C0823039
:1013900061F440E86BE180E191E00E94240C81114E
:1013A00048CF81E28093EB0047CF813029F440E8B9
:1013B0006BE084E091E0F1CF833099F70E948D01DA
:1013C000DC011296ED90FC908E010F5F1F4F6801BB
:1013D000E114F10479F0D701ED91FC910680F781D9
:1013E000E02DB801C7010995080F111DF701E08430
:1013F000F184EECFD8011C92F60101900020E9F7AC
:101400003197BF016C197D0940E0C601C6CF6EEE71
:1014100070E0FB01449150E080E80E94AF0209CFE8
:10142000973009F4BECF983021F481E08093F10029
:1014300000CF993009F0FDCE837009F0B2CFEFE014
:10144000F1E081E031E096E32191222371F0809375
:10145000E9003093EB00DF0111972C912093EC0011
:101460009093ED008F5F873079F78EE78093EA00E5
:101470001092EA008F898093F302DBCE8B8D9C8DD6
:101480001092E90010920C0210920B0290930A0243
:1014900080930902898D811192C08E899D89913A2C
:1014A00049F4813209F07DCF47E050E064E071E01B
:1014B00080E0B3CF913209F074CF833269F48F8921
:1014C000988DB0E0A0E08093000190930101A0937B
:1014D0000201B0930301ADCE803269F48091E8003F
:1014E00082FFFCCF67E084E091E00E9406038BEF6F
:1014F0008093E8009ECE823209F09BCE8F89809344
:101500000B01EEEFFFE7859194918B3F9C4D51F1DC
:10151000E0E0F8E08091040190910501A0910601BE
:10152000B0910701803B9440A105B105F1F4809191
:101530000B0180FD1AC0EE3F8AE0F80789F587E7C6
:1015400097E7918380838091600080930D0288E10A
:101550009BE00FB6F894A895809360000FBE90931F
:10156000600067CEEEEFFAE0D5CF808191818737BA
:10157000974709F05ECEA8958091600088618093BE
:10158000600080910D0280936000EE3F2AE0F20738
:1015900089F08091FE0A9091FF0A9183808349CE61
:1015A000808191818737980751F29093FF0A809349
:1015B000FE0AC5CF1092FF0A1092FE0A3ACE0E9490
:1015C0008D01DC0112960D911C910115110509F494
:1015D000E8CED801ED91FC910190F081E02DBE01A3
:1015E0006B5E7F4FC8010995811123CEF8010085FC
:1015F0001185EBCF181619060CF41BCED2CEF1E0F4
:10160000FF12BECE62EF70E004CF1F920F920FB6B2
:101610000F9211242F933F934F935F936F937F9378
:101620008F939F93AF93BF93EF93FF938091B900F4
:10163000887F803609F44AC0F0F5883209F4A7C0E3
:1016400018F5803109F49BC0B8F4882309F4F9C077
:10165000883009F494C0FF91EF91BF91AF919F91B1
:101660008F917F916F915F914F913F912F910F904B
:101670000FBE0F901F901895883109F488C08032F2
:1016800051F78093180314C0803409F49DC040F4CE
:101690008033B9F38833F9F68093180385ECB0C032
:1016A000803509F485C0883509F496C0883499F6E8
:1016B0000E94E207D0CF883909F48CC038F588370A
:1016C00029F050F4883611F0803729F683E08093B2
:1016D0001A031092080257C0883809F47BC0803979
:1016E00019F0803809F0B7CF80910802803208F0F5
:1016F00071C0E091080281E08E0F80930802809112
:10170000BB00F0E0E851FE4F80833DC0803B39F0E4
:10171000E0F4803A09F479C0883A09F09CCF84E07B
:1017200080931A031092E7011092E601E0911402EF
:10173000F091150209958091E60181110FC081E0B9
:101740008093E6011092C60109C0803C09F4A6CF3F
:10175000883C09F4A3CF883B09F07DCFE091E701F5
:1017600081E08E0F8093E701F0E0EA53FE4F808125
:101770008093BB009091E7018091E60129C08091A0
:10178000F5028093BB0085EC8093BC0064CF909100
:10179000170380911603981758F5E091170381E01D
:1017A0008E0F80931703F0E0EA50FD4F8081E9CF60
:1017B000E091170381E08E0F809317038091BB00A7
:1017C000F0E0EA50FD4F808390911703809116035B
:1017D0009817C8F285E8D8CFE091170381E08E0F03
:1017E000809317038091BB00F0E0EA50FD4F8083A7
:1017F0008091190381115CCF81E08093F40284EA27
:101800008093BC0010921A0326CF85EC8093BC0015
:1018100010921A0380910802803230F4E09108029D
:10182000F0E0E851FE4F10826091080270E0E09114
:101830001202F091130288EE91E0099510920802CD
:101840000ACF1092180334CFEF92FF920F931F9399
:10185000CF93DF93F82E192FE62E042F81E0860F09
:10186000880F0E94810283E00E948102CF2DD12F38
:10187000EC0EFD2EF11CCE15DF05B9F007FF13C0ED
:10188000FE0184910E948102182F80E00E94810253
:10189000812321968111EFCFDF91CF911F910F917D
:1018A000FF90EF9008958881EDCF81E0F5CFE4E4DB
:1018B000F3E01382128288EE93E0A0E0B0E084832C
:1018C0009583A683B78324E531E0318320832FEF0E
:1018D0003FEF35872487E4E9F3E0138212828483A3
:1018E0009583A683B78386E691E0918380830895EC
:1018F000CF93DF93CDB7DEB766970FB6F894DEBF10
:101900000FBECDBF789484B5826084BD84B58160FC
:1019100084BD85B5826085BD85B5816085BD8091BA
:101920006E00816080936E00109281008091810032
:10193000826080938100809181008160809381002A
:10194000809180008160809380008091910082600E
:1019500080939100809191008160809391008091AB
:1019600090008160809390008091C100846080939A
:10197000C1008091C10082608093C1008091C1004C
:1019800081608093C1008091C30081608093C30017
:101990008091C00082608093C0008091C20081600D
:1019A0008093C20080917A00846080937A00809155
:1019B0007A00826080937A0080917A0081608093BF
:1019C0007A0080917A00806880937A001092F30206
:1019D0001092100210920F028091D70081608093C4
:1019E000D70080EA8093D80089B5806189BD89B528
:1019F000826089BD09B400FEFDCF0E945B02809128
:101A0000D8008F7C80618093D8008091E000807F37
:101A10008093E0008091E1008E7E8093E1008DE074
:101A20008093E200559A209A60E085E10E94A1012E
:101A300085E10E94330160E081E00E94A10181E024
:101A40000E9433011092790260E085E10E94A101B9
:101A50000E943306109211020E9433061092170260
:101A60001092160210922103109243030E945C040C
:101A70008FE792E0909315028093140280E892E041
:101A800090931302809312028CE08093B8006FEF62
:101A900080E00E9414068111C3C080E080937F0221
:101AA0000E9473026B017C010E94EB062091800270
:101AB000E5E9F2E0A4E4B1E03D91BC0102C0769515
:101AC00067953A95E2F7AB01409550954170408398
:101AD0004183C282D382E482F58260FF2F5F369613
:101AE00031E0A035B30741F720938002BC01672F96
:101AF000772762956F70AB01409550954170409388
:101B0000890240938A02C0928B02D0928C02E092AA
:101B10008D02F0928E0260FD03C02F5F2093800241
:101B2000892F99278295869587709C0120953095FD
:101B3000217020938F0220939002C0929102D09244
:101B40009202E0929302F092940280FD05C080918F
:101B500080028F5F8093800282E10E941202909344
:101B600082028093810283E10E9412029093840298
:101B7000809383020E9473068FEF9FEF909351032F
:101B8000809350038CE291E00E94AA0385E191E0EA
:101B90000E948C0684E791E00E948C0611E084E4A8
:101BA00093E00E941B04181619060CF0C5C084E4CB
:101BB00093E00E94D9038D3091F3E09178028A304E
:101BC00009F0AEC0AE2FB0E0A85EBD4F1C92EE2370
:101BD00021F167E771E088E192E00E948B11892B87
:101BE00091F50E94730260937A0270937B02809356
:101BF0007C0290937D0280917E0281110AC0109335
:101C00007E021093790261E085E10E94A1010E94A9
:101C100033068FE491E00E94990610927802BFCFBC
:101C20006FEF81E00E941406882309F436CF6FEF2E
:101C30008CE00E941406882309F42FCF6FE38DE017
:101C40000E9414062BCF60E871E088E192E00E94C8
:101C50008B11892B59F587E391E00E94AA0384E256
:101C600091E00E948C060E94C5038BE191E00E94E6
:101C70008C060E94C50385E191E00E948C060E94BB
:101C8000C5034AE06CE070E080E090E00E94A706A7
:101C90000E94C5034AE062E070E080E090E00E94AC
:101CA000A70684E791E00E948C06B7CF82E1EDE8B9
:101CB000F1E0DE01119601900D928A95E1F741E184
:101CC00050E0BE016F5F7F4F88E192E00E94941167
:101CD000892B09F0A2CF4AE050E070E060E089E291
:101CE00092E00E940B106B017C0141EDC41647E0AD
:101CF000D406E104F10430F0E0EDCE2EE7E0DE2E74
:101D0000E12CF12CD0920D01C0920C010E943306FF
:101D100081E491E00E94AA034AE0C701B601BFCF67
:101D2000EF3508F07ACF91E09E0F90937802F0E0C3
:101D3000E85EFD4F808333CF80917E028823E9F0F7
:101D40000E94730200917A0210917B0220917C0222
:101D500030917D02601B710B820B930B693B7B40C2
:101D60008105910550F010927E021092790260E098
:101D700085E10E94A1010E9433060E9473024B017B
:101D80005C010E94EB067C0180917F02882309F4AC
:101D9000C5C005E912E064E4262E61E0362E412C30
:101DA000512C32014394D1018D911D01970102C044
:101DB000369527958A95E2F7C90180959095B82FB9
:101DC000B170DB2EF8019081B91729F0B0838282BF
:101DD0009382A482B582F8019181D91689F142815A
:101DE000538164817581D501C401841B950BA60BB9
:101DF000B70B4497A105B10518F1D18280918002FB
:101E00006901B1E0CB22DD2420FDECC08E3018F456
:101E10008F5F809380020E94730680E691E00E94AB
:101E2000AA034AE0C301B2010E94A7060E94C503AB
:101E30008BE591E0CD2811F088E591E00E949906AC
:101E40000A5F1F4FEFEF4E1A5E0A6E0A7E0AFDE030
:101E50004F1651046104710409F0A5CF42E4242E09
:101E600041E0342E09E812E0412C512C3201439418
:101E7000D1018D911D01970102C0369527958A9554
:101E8000E2F7C90180959095B82FB170DB2EF8016B
:101E90009081B91729F0B08382829382A482B5829F
:101EA000F8019181D91689F142815381648175814C
:101EB000D501C401841B950BA60BB70B4497A10554
:101EC000B10518F1D182809180026901B1E0CB2285
:101ED000DD2420FD92C08E3018F48F5F8093800245
:101EE0000E94730681E791E00E94AA034AE0C301C1
:101EF000B2010E94A7060E94C5038CE691E0CD289E
:101F000011F089E691E00E9499060A5F1F4FE2E016
:101F10004E1651046104710409F069C08091850274
:101F200090918602A0918702B0918802A501940148
:101F3000281B390B4A0B5B0BDA01C9014497A10539
:101F4000B10508F445C08092850290928602A09265
:101F50008702B092880290E4E92E91E0F92E01E820
:101F600012E0812C912C54018394D7018D917D0135
:101F70000E9412026C01F801819191918F018C15E0
:101F80009D0508F045C09601281B390BC90104972F
:101F9000C8F0F8013297D182C08281E891E00E94B6
:101FA000AA034AE0C501B4010E94A7060E94C50326
:101FB000B60190E080E04AE00E94A70684E791E045
:101FC0000E948C0632E083169104A104B104D1F47E
:101FD0000E94330680E090E0892B09F4DFCD0E9457
:101FE0000000DCCD882309F416CF815012CF32E0F7
:101FF000432E512C612C712C3BCF882309F470CFD8
:1020000081506CCF82E0882E912CA12CB12CADCFC9
:102010008C199D09BCCFB0E0A0E0E1E1F0E10C94A7
:1020200040115C016B017A016115710519F0FB012A
:1020300091838083E114F10449F0C70102978397EB
:1020400028F060E070E0CB019CC05E01E5012196C4
:10205000F5011081812F90E00E94F610892BA9F7DD
:102060001D3209F056C02196F501118101E0E114FD
:10207000F10409F4AEC0F0E1EF16F10409F08EC0EE
:10208000103341F488818F7D883509F083C0198130
:1020900022960260E0E1EE2EF12C88248A94982C9E
:1020A000A82CFFE0BF2E20E060E070E0CB0127010C
:1020B0000F2C000C66087708FE0150ED352E310E0E
:1020C00039E0331538F43FEB310F3A31A0F549ECE4
:1020D000342E310E3E141F04BCF52F3FB9F0861686
:1020E0009706A806B90670F1A30192010E94021199
:1020F000232D30E050E040E0620F731F841F951FD6
:102100006217730784079507E8F021E02196108194
:10211000D3CF1B3221F4E5012296F501118100E0B5
:10212000A6CF78E0E72EF12C88248A94982CA82C4E
:102130006FE1B62EB8CF3FE9310F3A3128F439EAD2
:10214000332EC7CF2FEFE2CFC114D10431F02223B9
:10215000E9F02197F601D183C08300FF07C0909575
:102160008095709561957F4F8F4F9F4F2F3F49F41A
:1021700082E290E09093A1038093A0036FEF7FEF42
:10218000CB01CDB7DEB7E1E10C945C1101FFE5CFE7
:102190002297E0CF10E3E114F10419F23AE0E316DC
:1021A000F104E9F080E1E816F10409F473CFE8E006
:1021B000EE16F10409F4B8CF6FEF7FEFCB01970172
:1021C0000F2C000C440B550B0E94121149015A01AF
:1021D0006ACF103309F456CF9AE0E92EF12C89E941
:1021E000882E982CA82C89E1B82E5DCF91110C94E3
:1021F000FF10803219F089508550C8F7089599274B
:1022000088270895DB018F939F930E943411BF911B
:10221000AF91A29F800D911DA39F900DB29F900D35
:1022200011240895A1E21A2EAA1BBB1BFD010DC0AB
:10223000AA1FBB1FEE1FFF1FA217B307E407F50776
:1022400020F0A21BB30BE40BF50B661F771F881F52
:10225000991F1A9469F760957095809590959B01E8
:10226000AC01BD01CF0108950E947611A59F900D8C
:10227000B49F900DA49F800D911D112408952F925D
:102280003F924F925F926F927F928F929F92AF9206
:10229000BF92CF92DF92EF92FF920F931F93CF9353
:1022A000DF93CDB7DEB7CA1BDB0B0FB6F894DEBFEA
:1022B0000FBECDBF09942A88398848885F846E8410
:1022C0007D848C849B84AA84B984C884DF80EE805A
:1022D000FD800C811B81AA81B981CE0FD11D0FB663
:1022E000F894DEBF0FBECDBFED010895A29FB001EF
:1022F000B39FC001A39F700D811D1124911DB29F3A
:10230000700D811D1124911D0895EE0FFF1F059082
:10231000F491E02D0994FB01DC018D91019080196D
:102320000110D9F3990B0895FB01DC014150504095
:1023300030F08D910190801919F40020B9F7881BB5
:08234000990B0895F894FFCFFA
:10234800FFFFFFFF00E1000000000000780000C16F
:102358008081000000312E302E30004843442D503B
:102368004C5553004861636B4D616E334420436F95
:102378006E74726F6C204465636B20506C757300CB
:1023880012130C0D000102030405060708090A0BC5
:102398000000000094031303D503CA031B04D903E8
:1023A800F70300000000E205B50511068B05AE0530
:1023B8009B058C050D0A004843445F50494E470071
:1023C8004843445F4745545F494E464F004843449D
:1023D8005F5345545F4C45445F484F4C447C000074
:00000001FF
