:100000000C94F7000C941F010C941F010C941F0119
:100010000C941F010C941F010C941F010C941F01E0
:100020000C941F010C941F010C94A7050C94160648
:100030000C941F010C941F010C941F010C941F01C0
:100040000C941F010C941F010C941F010C941F01B0
:100050000C941F010C941F010C941F010C945D055E
:100060000C941F010C941F010C941F010C941F0190
:100070000C941F010C941F010C941F010C941F0180
:100080000C941F010C941F010C941F010C941F0170
:100090000C941F010C941F010C941F010C941F0160
:1000A0000C941F010C941F010C941F01080B0002FB
:1000B0000202000009040000010202000005240001
:1000C0001001052401010104240206052406000193
:1000D0000705810310004009040100020A00000026
:1000E00007050202400000070583024000000403E8
:1000F000090412010002EF02014041233680000191
:100100000102030141726475696E6F204C4C43001B
:100110004861636B4D616E334420436F6E74726F40
:100120006C204465636B004843445F524541445929
:100130007C004843445F494E464F7C004843445F3F
:100140004C45445F484F4C447C004843445F504F0B
:100150004E4700555000444F574E004843445F4BB4
:1001600045597C0000000000240027002A002D00D3
:10017000300000000000250028002B002E00310078
:10018000000000002300260029002C002F0004049A
:100190000404040304050202020204030202020230
:1001A0000606060606060404020202040404080207
:1001B00001104080401020408040800802040180EF
:1001C000402010020110801020404020000000025A
:1001D00000090F0000030401000C000000000000F3
:1001E000000000000000000000000000000B1124CF
:1001F0001FBECFEFDAE0DEBFCDBF22E0A0ECB1E062
:1002000001C01D92A53CB207E1F711E0A0E0B1E00A
:10021000E4E8F9E102C005900D92A03CB107D9F7DE
:1002200010E0C7EFD0E004C02197FE010E94A30CAC
:10023000C63FD107C9F70E9448080C94C00C0C9423
:100240000000FC0180917202882311F13FB7F894FD
:1002500082E08093E9002091F200822F90E018164E
:10026000190614F481E090E0882339F0289844E6D8
:10027000409371024091F1004083222339F0209194
:10028000F200211103C02BE62093E8003FBF089540
:100290008FEF9FEF08952FB7F89483E08093E900E4
:1002A0009091E800892F807295FF04C09091F20030
:1002B00080E4891B2FBF08958091690281110DC0D0
:1002C00082E08093650284E0809366021092680267
:1002D0001092670281E08093690285E692E00895BA
:1002E00081508F3008F047C0E82FF0E0E658FE4F0D
:1002F0000C94A30C97019B0189018F019301BB0111
:10030000BB01BB019E01A401A801AC01B201BB016C
:10031000B601809180008F7780938000089580914E
:1003200080008F7DF9CF80918000877FF5CF84B5E5
:100330008F7784BD089584B58F7DFBCF8091900029
:100340008F77809390000895809190008F7DF9CFF2
:1003500080919000877FF5CF8091C0008F77809348
:10036000C00008958091C0008F7DF9CF8091C200B8
:10037000877F8093C2000895CF93DF93282F30E0CA
:10038000F901E453FE4F8491F901E355FE4FD491F6
:10039000F901E257FE4FC491CC23A1F081110E94D4
:1003A0007001EC2FF0E0EE0FFF1FE058FE4FA5911B
:1003B000B491EC91ED2381E090E009F480E0DF91CD
:1003C000CF91089580E090E0FACF1F93CF93DF9311
:1003D000282F30E0F901E453FE4F8491F901E355F1
:1003E000FE4FD491F901E257FE4FC491CC23A9F0FE
:1003F000162F81110E947001EC2FF0E0EE0FFF1F0D
:10040000EE58FE4FA591B4918FB7F894EC9111116D
:1004100008C0D095DE23DC938FBFDF91CF911F9171
:100420000895DE2BF8CFCF93DF9390E0FC01E355E6
:10043000FE4F249182579E4FFC0184918823D1F076
:1004400090E0880F991FFC01EC59FE4FA591B491E3
:10045000FC01EE58FE4FC591D491623071F49FB704
:10046000F8943C91822F809583238C93E8812E2BE6
:1004700028839FBFDF91CF9108958FB7F894EC91B7
:100480002E2B2C938FBFF6CF3FB7F894809161024B
:1004900090916202A0916302B091640226B5A89B7C
:1004A00005C02F3F19F00196A11DB11D3FBFBA2F06
:1004B000A92F982F8827BC01CD01620F711D811DC6
:1004C000911D42E0660F771F881F991F4A95D1F74B
:1004D0000895CF92DF92EF92FF920E9444026B0147
:1004E0007C010E9444026C197D098E099F09683EB7
:1004F000734081059105A8F3FF90EF90DF90CF90B6
:1005000008952FB7F89460915D0270915E0280911A
:100510005F02909160022FBF08954091C7015091F2
:10052000C8012091C5013091C60142175307B4F4A8
:100530009091E8009570E1F39091E80092FD19C068
:100540008093F1008091C7019091C80101968F734B
:100550009927892B19F48EEF8093E8008091C701C9
:100560009091C80101969093C8018093C70181E0E2
:10057000089580E00895EF92FF920F931F93CF9319
:10058000DF93F82E192FE62E042F81E0860F880FB7
:100590000E948D0283E00E948D02CF2DD12FEC0EA0
:1005A000FD2EF11CCE15DF05B9F007FF13C0FE01CB
:1005B00084910E948D02182F80E00E948D02812379
:1005C00021968111EFCFDF91CF911F910F91FF9075
:1005D000EF9008958881EDCF81E0F5CFDF92EF9223
:1005E000FF920F931F93CF93DF93D82E8A01EB01D5
:1005F0007B01E40EF51ECE15DF0559F0D7FE12C0C3
:10060000FE0184910E948D0221968111F4CF0FEF9B
:100610001FEFC801DF91CF911F910F91FF90EF90D5
:10062000DF9008958881EECF0F931F93CF93DF93D0
:100630001F92CDB7DEB782E0898342E450E06CEAD6
:1006400070E080E80E94EE020E945C01DC011296DC
:100650000D911C910115110589F0D801ED91FC91C6
:100660000280F381E02DBE016F5F7F4FC8010995C5
:1006700097FD04C0F80100851185ECCF89810F90AA
:10068000DF91CF911F910F910895615030F020912B
:10069000F100FC0120830196F8CF289884E680932E
:1006A000710208958F929F92AF92BF92CF92DF9284
:1006B000EF92FF920F931F93CF93DF936C017B0117
:1006C0008A0180910B01882309F458C0809172023D
:1006D000882309F453C08091CB0180FF05C080912D
:1006E000E00082608093E000E801B12C8AEFA82E40
:1006F00093E0892E2AE3922E209711F4BB20B9F1C2
:100700000E944B01811106C0AA94AA20B9F10E944F
:100710006902F2CF8C171D0611F00CF08C2F9FB7D9
:10072000F8948092E9002091E80025FD02C09FBF67
:10073000E3CF282F30E0C21BD30BF701815020F00C
:1007400041914093F100FACFE20EF31EBB2021F05D
:100750009092E800B12CEBCF8091E80085FDE7CFC7
:100760009092E800BB24B394209709F3F3CF5D98EF
:1007700084E68093CA01101611063CF081E090E0F7
:10078000F6019383828310E000E0C801DF91CF91EE
:100790001F910F91FF90EF90DF90CF90BF90AF909F
:1007A0009F908F900895CF93DF931F92CDB7DEB7C0
:1007B0006983DC01ED91FC910280F381E02D41E041
:1007C00050E0BE016F5F7F4F09950F90DF91CF9191
:1007D00008950F931F93CF93DF938C01D0E0C0E077
:1007E000F801EC0FFD1F6491662341F083E792E06E
:1007F0000E94D303892B11F02196F2CFCE01DF9115
:10080000CF911F910F9108956CE783E792E00C94CC
:10081000D30383E08093E9008091F200882319F0EC
:100820008AE38093E80008950E944B0190E00895C8
:10083000CF93DF931F92CDB7DEB7FC0184859585FA
:1008400097FD08C02FEF3FEF358724870F90DF918A
:10085000CF910895CE0101960E942101019719F4CC
:10086000898190E0F3CF8FEF9FEFF0CF0F931F932D
:10087000CF93DF931F92CDB7DEB78C01FC01848547
:10088000958597FF0BC0CE0101960E94210101972B
:1008900071F4898190E0F80195878487F801848557
:1008A00095850F90DF91CF911F910F9108958FEF54
:1008B0009FEFF1CFFC018485958597FD0BC09FB715
:1008C000F89482E08093E9008091F2009FBF90E06D
:1008D000019608959FB7F89482E08093E900809193
:1008E000F2009FBF90E00895CF92DF92EF92FF92C7
:1008F000CF93DF93C091C401CC2309F18091CD0146
:1009000081111CC00E948102C090C001D090C10121
:10091000E090C201F090C301AB01BC014C195D092C
:100920006E097F0980910E0190910F01B0E0A0E067
:10093000C1E0481759076A077B0708F0C0E00E942A
:10094000440220ED37E040E050E00E941C0C6B01B7
:100950007C01D0911F02DD2321F020910D01211196
:1009600012C060E085E10E94E501DD2351F0809135
:10097000CD01811102C0CC2321F020910C01211165
:100980001BC060E02DC061E02F3F91F030E0A0ED92
:10099000B7E00E94800C2FEF30E040E050E00E9472
:1009A0001C0C61E0C216D306E406F50608F060E010
:1009B00085E10E94E501DBCF61E02F3F89F030E067
:1009C000A0EDB7E00E94800C2FEF30E040E050E057
:1009D0000E941C0C61E0C216D306E406F50688F6F8
:1009E00081E0DF91CF91FF90EF90DF90CF900C945A
:1009F000E5018093CD01882369F081E08093C401F3
:100A00000E9481026093C0017093C1018093C20172
:100A10009093C3010C947404FC0101900020E9F749
:100A20003197AF01481B590BBC0183E792E00C944E
:100A300052038F929F92AF92BF920F931F93CF93C7
:100A4000DF93CDB7DEB7A1970FB6F894DEBF0FBE28
:100A5000CDBF19A2423008F44AE08E010F5D1F4F4E
:100A6000842E912CB12CA12CA50194010E941C0C68
:100A7000E62FB901CA01EA30F4F4E05DD801EE9343
:100A80008D01232B242B252B79F790E080E0109704
:100A900019F0CD010E940C05A1960FB6F894DEBFA7
:100AA0000FBECDBFDF91CF911F910F91BF90AF903F
:100AB0009F908F900895E95CE1CF1F920F920FB63F
:100AC0000F9211242F933F938F939F93AF93BF93D4
:100AD00080915D0290915E02A0915F02B0916002F0
:100AE00030915C0223E0230F2D3758F50196A11DAC
:100AF000B11D20935C0280935D0290935E02A093EF
:100B00005F02B09360028091610290916202A091B5
:100B10006302B09164020196A11DB11D8093610230
:100B200090936202A0936302B0936402BF91AF916D
:100B30009F918F913F912F910F900FBE0F901F901B
:100B4000189526E8230F0296A11DB11DD2CF1F9242
:100B50000F920FB60F9211248F939F938091E10013
:100B60009091E100937F9093E10083FF0FC010927A
:100B7000E90091E09093EB001092EC0092E39093E7
:100B8000ED001092720298E09093F00082FF22C074
:100B900093E09093E9009091F200992319F09AE381
:100BA0009093E8009091CA01992341F09091CA0175
:100BB00091509093CA01911101C05D9A9091710278
:100BC000992341F09091710291509093710291118B
:100BD00001C0289A84FF18C08091E2008E7E816057
:100BE0008093E2008091E1008F7E8093E10080910C
:100BF000CB018E7E80618093CB019F918F910F906E
:100C00000FBE0F901F90189580FFF7CF8091E200E4
:100C10008E7E80618093E2008091E1008E7E8093E1
:100C2000E1008091CB018E7E8160E5CF1F920F9213
:100C30000FB60F921124CF92DF92EF92FF920F9393
:100C40001F932F933F934F935F936F937F938F9354
:100C50009F93AF93BF93EF93FF93CF93DF93CDB762
:100C6000DEB76C97DEBFCDBF1092E9008091E8003F
:100C700083FF25C068E0CE0145960E94450382EFC0
:100C80008093E8008D8987FF39C09091E80090FF3C
:100C9000FCCF982F907609F034C19E894F89588DEA
:100CA0002F89F88C911131C0803861F58091CC0189
:100CB0008093F1001092F1008EEF8093E8006C9623
:100CC0000FB6F894DEBF0FBECDBFDF91CF91FF917D
:100CD000EF91BF91AF919F918F917F916F915F91B4
:100CE0004F913F912F911F910F91FF90EF90DF90C7
:100CF000CF900F900FBE0F901F9018959EEF90937E
:100D0000E800C7CF1092F100D5CF913059F481118E
:100D1000D3CF4130510581F68091CC018D7F8093F6
:100D2000CC01CACF933049F48111C6CF413051056F
:100D300019F68091CC018260F2CF953041F4809118
:100D4000E80080FFFCCF20682093E300B5CF963009
:100D500009F0A9C00B8D1C8D22E01092E9001092C1
:100D6000C8011092C701F2122EC01092C601109253
:100D7000C5010E9414031F8299E09983FA8291E0D1
:100D80009E8390EA98879AEF99872091C7013091C6
:100D9000C801275F3F4F3C832B838D831092E9006E
:100DA0001092C8011092C7011093C6010093C501AB
:100DB00049E050E0BE016F5F7F4F80E00E94EE028D
:100DC0000E94140379CF1093C6010093C5010E94BD
:100DD0005C01DC0112960D911C910115110509F4BD
:100DE00051C1D801ED91FC910480F581E02DBE0147
:100DF0006B5E7F4FC8010995009709F03EC1F8016D
:100E000000851185EACFF3E0FF120EC08F89882399
:100E100009F440C0823061F440E866E180E191E08D
:100E20000E94BB02811148CF81E28093EB0047CF43
:100E3000813029F440E86BE084E091E0F1CF833029
:100E400099F70E945C01DC011296ED90FC908E01F6
:100E50000F5F1F4F6801E114F10479F0D701ED91A4
:100E6000FC910680F781E02DB801C7010995080FB4
:100E7000111DF701E084F184EECFD8011C92F60138
:100E800001900020E9F73197BF016C197D0940E01E
:100E9000C601C6CF6EEE70E0FB01449150E080E8E1
:100EA0000E94EE0209CF973009F4BECF983021F4AA
:100EB00081E08093F10000CF993009F0FDCE83707E
:100EC00009F0B2CFE3E2F1E081E031E096E3219175
:100ED000222371F08093E9003093EB00DF0111973A
:100EE0002C912093EC009093ED008F5F873079F781
:100EF0008EE78093EA001092EA008F898093720255
:100F0000DBCE8B8D9C8D1092E9001092C80110925F
:100F1000C7019093C6018093C501898D811192C04C
:100F20008E899D89913A49F4813209F07DCF47E05D
:100F300050E064E071E080E0B3CF913209F074CF0B
:100F4000833269F48F89988DB0E0A0E0809300012E
:100F500090930101A0930201B0930301ADCE8032C2
:100F600069F48091E80082FFFCCF67E084E091E0C3
:100F70000E9445038BEF8093E8009ECE823209F0F9
:100F80009BCE8F8980930B01EEEFFFE785919491C3
:100F90008B3F9C4D51F1E0E0F8E08091040190918D
:100FA0000501A0910601B0910701803B9440A10585
:100FB000B105F1F480910B0180FD1AC0EE3F8AE08B
:100FC000F80789F587E797E7918380838091600030
:100FD0008093C90188E19BE00FB6F894A8958093AF
:100FE00060000FBE9093600067CEEEEFFAE0D5CFC1
:100FF000808191818737974709F05ECEA8958091CF
:1010000060008861809360008091C90180936000D6
:10101000EE3F2AE0F20789F08091FE0A9091FF0AE4
:101020009183808349CE808191818737980751F2DF
:101030009093FF0A8093FE0AC5CF1092FF0A109288
:10104000FE0A3ACE0E945C01DC0112960D911C91C1
:101050000115110509F4E8CED801ED91FC9101903C
:10106000F081E02DBE016B5E7F4FC80109958111B3
:1010700023CEF80100851185EBCF181619060CF464
:101080001BCED2CEF1E0FF12BECE62EF70E004CFF5
:10109000CF93DF93CDB7DEB7C255D1090FB6F89421
:1010A000DEBF0FBECDBF789484B5826084BD84B5A9
:1010B000816084BD85B5826085BD85B5816085BD53
:1010C00080916E00816080936E001092810080910B
:1010D0008100826080938100809181008160809393
:1010E00081008091800081608093800080919100D8
:1010F0008260809391008091910081608093910043
:10110000809190008160809390008091C100846004
:101110008093C1008091C10082608093C100809162
:10112000C10081608093C1008091C3008160809381
:10113000C3008091C00082608093C0008091C20093
:1011400081608093C20080917A00846080937A00ED
:1011500080917A00826080937A0080917A00816029
:1011600080937A0080917A00806880937A00109250
:1011700072021092CC011092CB018091D700816055
:101180008093D70080EA8093D80089B5806189BDBB
:1011900089B5826089BD09B400FEFDCF0E94690255
:1011A0008091D8008F7C80618093D8008091E0008E
:1011B000807F8093E0008091E1008E7E8093E1004B
:1011C0008DE08093E200559A209A60E085E10E94CC
:1011D000E50161E085E10E94130260E081E00E9488
:1011E000E50161E081E00E94130210921F020E945B
:1011F00074041092CD010E9474040E9481024B017C
:101200005C0106E212E04FE4E42E41E0F42ED70147
:10121000DD907D0162E08D2D0E9413028D2D0E94D4
:10122000BC019C0191E02115310509F090E0F80125
:101230009083918382829382A482B58290912502C9
:10124000232B21F481E0890F809325020A5F1F4F31
:10125000B8E5EB16B1E0FB06D1F681E090912502EE
:10126000911101C080E00E94F9048FEF9FEF9093ED
:10127000800280937F0287E291E00E94E90389E285
:1012800091E00E940C0588E591E00E940C0534E68F
:10129000A32EB12C83E792E00E945A041816190677
:1012A0000CF018C183E792E00E9418048D3091F38E
:1012B000E0911E028A3009F001C1AE2FB0E0A253C6
:1012C000BE4F1C92EE2329F16BE571E08EEC91E0AC
:1012D0000E94A90C892B01F50E94810260932002D3
:1012E0007093210280932202909323028091240222
:1012F000811107C0E1E0E0932402E0931F020E9405
:1013000074048AE491E00E94E90388E591E00E9478
:101310000C0510921E02BECF64E671E08EEC91E0E7
:101320000E94A90C892BF1F482E391E00E94E90369
:1013300088E391E00E940C050E9404048FE291E092
:101340000E940C050E94040489E291E00E940C05B1
:101350000E9404044AE069E070E080E090E00E94AE
:101360001905D3CF82E1E1E7F1E0DE01DD960190DE
:101370000D928A95E1F741E150E0BE01635C7F4F39
:101380008EEC91E00E94B20C892B29F54AE050E0E6
:1013900070E060E08FED91E00E94150B6B017C0125
:1013A000F1EDCF16F7E0DF06E104F10430F020EDB7
:1013B000C22E27E0D22EE12CF12CD0920F01C09248
:1013C0000E010E9474048CE391E00E94E9034AE05C
:1013D000C701B601C4CF8FE1E3E8F1E0DE01119669
:1013E00001900D928A95E1F74EE150E0BE016F5FEA
:1013F0007F4F8EEC91E00E94B20C892B31F54AE0D0
:1014000050E070E060E08CEE91E00E94150B6436D5
:10141000710581059105B8F44AE050E070E060E0A4
:101420008CEE91E00E94150B653608F064E62FEF14
:10143000629FC0011124B5010E948F0C60930D01C1
:101440000E94740466CF64E6EFCF8DE1E2EAF1E03A
:10145000DE01909601900D928A95E1F74CE150E003
:10146000BE01605E7F4F8EEC91E00E94B20C892B32
:1014700009F04FCF4AE050E070E060E08AEE91E082
:101480000E94150B6436710581059105A8F44AE0A8
:1014900050E070E060E08AEE91E00E94150B653646
:1014A00008F064E63FEF639FC0011124B5010E947C
:1014B0008F0C60930C01C4CF64E6F1CFEF3408F0D9
:1014C00028CF91E09E0F90931E02F0E0E253FE4F72
:1014D0008083E0CE809124028823C9F00E9481029B
:1014E00000912002109121022091220230912302CA
:1014F000601B710B820B930B693B7B40810591054F
:1015000030F01092240210921F020E9474040E9474
:1015100081022B013C0106E212E08FE4282E81E0DB
:10152000382EC12CD12C7601C394D1018D911D018F
:101530000E94BC014C0161E0892B09F060E0F801D8
:101540009081691729F06083428253826482758298
:10155000F80191816917C1F122813381448155815C
:10156000D301C201821B930BA40BB50B4497A105B9
:10157000B10550F161838091250281149104E1F558
:10158000893018F48F5F8093250281E090912502C5
:10159000911101C080E00E94F9048BE591E00E9466
:1015A000E9034AE0C701B6010E9419050E9404043C
:1015B00086E591E0892811F083E591E00E94E90336
:1015C00088E591E00E940C050A5F1F4FBFEFCB1A20
:1015D000DB0AEB0AFB0AEAE0CE16D104E104F104CF
:1015E00009F0A3CF0E94740480E090E0892B09F4F5
:1015F00051CE0E9400004ECE882339F28150C3CFD5
:10160000E3E7F2E01382128288EE93E0A0E0B0E01C
:1016100084839583A683B78384E191E0918380835B
:101620008FEF9FEF958784870895B0E0A0E0EBE10E
:10163000FBE00C944A0C5C016B017A0161157105A9
:1016400019F0FB0191838083E114F10449F0C70193
:101650000297839728F060E070E0CB019CC05E01A8
:10166000E5012196F5011081812F90E00E94000C88
:10167000892BA9F71D3209F056C02196F501118179
:1016800001E0E114F10409F4AEC0F0E1EF16F10459
:1016900009F08EC0103341F488818F7D883509F0C0
:1016A00083C0198122960260E0E1EE2EF12C88249D
:1016B0008A94982CA82CFFE0BF2E20E060E070E018
:1016C000CB0127010F2C000C66087708FE0150EDB6
:1016D000352E310E39E0331538F43FEB310F3A3106
:1016E000A0F549EC342E310E3E141F04BCF52F3FFB
:1016F000B9F086169706A806B90670F1A301920103
:101700000E940C0C232D30E050E040E0620F731F6C
:10171000841F951F6217730784079507E8F021E07F
:1017200021961081D3CF1B3221F4E5012296F501D9
:10173000118100E0A6CF78E0E72EF12C88248A946E
:10174000982CA82C6FE1B62EB8CF3FE9310F3A3173
:1017500028F439EA332EC7CF2FEFE2CFC114D104DA
:1017600031F02223E9F02197F601D183C08300FFF5
:1017700007C090958095709561957F4F8F4F9F4FD3
:101780002F3F49F482E290E09093C4028093C30219
:101790006FEF7FEFCB01CDB7DEB7E1E10C94660CC4
:1017A00001FFE5CF2297E0CF10E3E114F10419F235
:1017B0003AE0E316F104E9F080E1E816F10409F4F7
:1017C00073CFE8E0EE16F10409F4B8CF6FEF7FEFC6
:1017D000CB0197010F2C000C440B550B0E941C0CE5
:1017E00049015A016ACF103309F456CF9AE0E92E25
:1017F000F12C89E9882E982CA82C89E1B82E5DCF90
:1018000091110C94090C803219F089508550C8F759
:101810000895992788270895DB018F939F930E944D
:101820003E0CBF91AF91A29F800D911DA39F900D83
:10183000B29F900D11240895A1E21A2EAA1BBB1B82
:10184000FD010DC0AA1FBB1FEE1FFF1FA217B3078C
:10185000E407F50720F0A21BB30BE40BF50B661FA2
:10186000771F881F991F1A9469F760957095809566
:1018700090959B01AC01BD01CF0108950E94800CA1
:10188000A59F900DB49F900DA49F800D911D1124D4
:1018900008952F923F924F925F926F927F928F9214
:1018A0009F92AF92BF92CF92DF92EF92FF920F93EF
:1018B0001F93CF93DF93CDB7DEB7CA1BDB0B0FB6F9
:1018C000F894DEBF0FBECDBF09942A8839884888B6
:1018D0005F846E847D848C849B84AA84B984C8844C
:1018E000DF80EE80FD800C811B81AA81B981CE0F43
:1018F000D11D0FB6F894DEBF0FBECDBFED01089528
:10190000A29FB001B39FC001A39F700D811D112440
:10191000911DB29F700D811D1124911D0895AA1B68
:10192000BB1B51E107C0AA1FBB1FA617B70710F0CA
:10193000A61BB70B881F991F5A95A9F780959095FC
:10194000BC01CD010895EE0FFF1F0590F491E02D2D
:101950000994FB01DC018D91019080190110D9F3EC
:10196000990B0895FB01DC014150504030F08D91FE
:101970000190801919F40020B9F7881B990B08957C
:04198000F894FFCF09
:10198400FFFFFFFF00E1000000000000FFFF780000
:1019940000000000D3035203140409045A04180479
:1019A400360400C18081000000312E372E310048FA
:1019B40043442D42415345004861636B4D616E338E
:1019C4004420436F6E74726F6C204465636B000433
:1019D40003020706050A09080D0A004843445F503C
:1019E400494E47004843445F4745545F494E464F7C
:1019F400004843445F5345545F4C45445F484F4C53
:101A0400447C004843445F5345545F434F4E4E4526
:101A14004354494F4E5F4252494748544E455353ED
:101A24007C004843445F5345545F46454544424126
:101A3400434B5F4252494748544E4553537C000040
:00000001FF
