:100000000C9411010C9439010C9439010C943901B0
:100010000C9439010C9439010C9439010C94390178
:100020000C9439010C9439010C9442090C94B109D7
:100030000C9439010C9439010C9439010C94390158
:100040000C9439010C9439010C9439010C94390148
:100050000C9439010C9439010C9439010C94F80872
:100060000C9439010C9439010C9439010C94390128
:100070000C9439010C9439010C9439010C94390118
:100080000C9439010C9439010C9439010C94390108
:100090000C94E30B0C9439010C9439010C94390144
:1000A0000C9439010C9439010C9439014C45465497
:1000B000005249474854004843445F454E434F442B
:1000C00045527C00080B00020202000009040000F7
:1000D00001020200000524001001052401010104B1
:1000E00024020605240600010705810310004009CB
:1000F000040100020A000000070502024000000798
:100100000583024000000403090412010002EF020B
:1001100001404123368000010102030141726475F0
:10012000696E6F204C4C43004861636B4D616E33C8
:100130004420436F6E74726F6C204465636B205073
:100140006C7573004843445F52454144597C0048F4
:1001500043445F494E464F7C004843445F4C45440E
:100160005F484F4C447C004843445F504F4E47002B
:10017000555000444F574E004843445F4B45597C0F
:1001800000555000444F574E004843445F504F5471
:100190005F425554544F4E7C00000000002400275D
:1001A000002A002D00300000000000250028002B50
:1001B000002E003100000000002300260029002C42
:1001C000002F0004040404040304050202020204D4
:1001D00003020202020606060606060404020202E2
:1001E0000404040802011040804010204080408038
:1001F00008020401804020100201108010204040BD
:10020000200000000200090F0000030401000C00A0
:1002100000000000000000000000000000000000DE
:10022000350D11241FBECFEFDAE0DEBFCDBF23E0D6
:10023000A2EBB1E001C01D92A53BB207E1F711E0CE
:10024000A0E0B1E0E2E7F4E202C005900D92A23B2B
:10025000B107D9F711E0C1E1D1E004C02197FE0157
:100260000E941A12C031D107C9F70E94560D0C9492
:1002700037120C940000FC0180910603882311F1D1
:100280003FB7F89482E08093E9002091F200822F3A
:1002900090E01816190614F481E090E0882339F0F4
:1002A000289844E6409305034091F10040832223BF
:1002B00039F02091F200211103C02BE62093E800D1
:1002C0003FBF08958FEF9FEF08952FB7F89483E015
:1002D0008093E9009091E800892F807295FF04C017
:1002E0009091F20080E4891B2FBF08958091FD0258
:1002F00081110DC082E08093F90284E08093FA02BC
:100300001092FC021092FB0281E08093FD0289EFC3
:1003100092E0089581508F3008F047C0E82FF0E058
:10032000EC56FE4F0C941A12B101B501A301A901BC
:10033000AD01D501D501D501B801BE01C201C6018B
:10034000CC01D501D001809180008F77809380000F
:100350000895809180008F7DF9CF80918000877F04
:10036000F5CF84B58F7784BD089584B58F7DFBCF9D
:10037000809190008F7780939000089580919000F5
:100380008F7DF9CF80919000877FF5CF8091C0005D
:100390008F778093C00008958091C0008F7DF9CF42
:1003A0008091C200877F8093C2000895CF93DF932E
:1003B000282F30E0F901EF5FFD4F8491F901EE51F4
:1003C000FE4FD491F901ED53FE4FC491CC23A1F01F
:1003D00081110E948A01EC2FF0E0EE0FFF1FEB5419
:1003E000FE4FA591B491EC91ED2381E090E009F4EA
:1003F00080E0DF91CF91089580E090E0FACF1F93E5
:10040000CF93DF93282F30E0F901EF5FFD4F849108
:10041000F901EE51FE4FD491F901ED53FE4FC49115
:10042000CC23A9F0162F81110E948A01EC2FF0E055
:10043000EE0FFF1FE955FE4FA591B4918FB7F894C9
:10044000EC91111108C0D095DE23DC938FBFDF91B2
:10045000CF911F910895DE2BF8CFCF93DF9390E0DB
:10046000FC01EE51FE4F24918D539E4FFC0184916F
:100470008823D1F090E0880F991FFC01E756FE4FCA
:10048000A591B491FC01E955FE4FC591D49162301C
:1004900071F49FB7F8943C91822F809583238C93BD
:1004A000E8812E2B28839FBFDF91CF9108958FB7CE
:1004B000F894EC912E2B2C938FBFF6CF3FB7F89486
:1004C0008091F5029091F602A091F702B091F802A6
:1004D00026B5A89B05C02F3F19F00196A11DB11D9F
:1004E0003FBFBA2FA92F982F8827BC01CD01620FDB
:1004F000711D811D911D42E0660F771F881F991F96
:100500004A95D1F70895CF92DF92EF92FF920E9421
:100510005E026B017C010E945E026C197D098E09EE
:100520009F09683E734081059105A8F3FF90EF9005
:10053000DF90CF9008952FB7F8946091F1027091F9
:10054000F2028091F3029091F4022FBF089540913E
:100550002802509129022091260230912702421749
:100560005307B4F49091E8009570E1F39091E8009E
:1005700092FD19C08093F100809128029091290288
:1005800001968F739927892B19F48EEF8093E800D9
:1005900080912802909129020196909329028093DC
:1005A000280281E0089580E00895DF92EF92FF92A3
:1005B0000F931F93CF93DF93D82E8A01EB017B011A
:1005C000E40EF51ECE15DF0559F0D7FE12C0FE0170
:1005D00084910E94A70221968111F4CF0FEF1FEFA3
:1005E000C801DF91CF911F910F91FF90EF90DF90A5
:1005F00008958881EECF0F931F93CF93DF931F92BF
:10060000CDB7DEB782E0898342E450E064EC70E06D
:1006100080E80E94D5020E947601DC0112960D91BD
:100620001C910115110589F0D801ED91FC91028012
:10063000F381E02DBE016F5F7F4FC801099597FDE3
:1006400004C0F80100851185ECCF89810F90DF91FE
:10065000CF911F910F910895615030F02091F100DA
:10066000FC0120830196F8CF289884E68093050347
:1006700008958F929F92AF92BF92CF92DF92EF92A6
:10068000FF920F931F93CF93DF936C017B018A013D
:1006900080910B01882309F458C0809106038823B8
:1006A00009F453C080912C0280FF05C08091E000C6
:1006B00082608093E000E801B12C8AEFA82E93E0DD
:1006C000892E2AE3922E209711F4BB20B9F10E94C3
:1006D0006501811106C0AA94AA20B9F10E94830283
:1006E000F2CF8C171D0611F00CF08C2F9FB7F894E9
:1006F0008092E9002091E80025FD02C09FBFE3CF72
:10070000282F30E0C21BD30BF701815020F041911C
:100710004093F100FACFE20EF31EBB2021F090923D
:10072000E800B12CEBCF8091E80085FDE7CF9092F7
:10073000E800BB24B394209709F3F3CF5D9884E6D7
:1007400080932B02101611063CF081E090E0F60138
:100750009383828310E000E0C801DF91CF911F9165
:100760000F91FF90EF90DF90CF90BF90AF909F9050
:100770008F900895CF93DF931F92CDB7DEB7698333
:10078000DC01ED91FC910280F381E02D41E050E02D
:10079000BE016F5F7F4F09950F90DF91CF91089554
:1007A0000F931F93CF93DF938C01D0E0C0E0F8014B
:1007B000EC0FFD1F6491662341F087E593E00E94F2
:1007C000BA03892B11F02196F2CFCE01DF91CF91A0
:1007D0001F910F9108956CE787E593E00C94BA039D
:1007E00083E08093E9008091F200882319F08AE386
:1007F0008093E80008950E94650190E00895CF93EA
:10080000DF931F92CDB7DEB7FC018485958597FDF8
:1008100008C02FEF3FEF358724870F90DF91CF91EE
:100820000895CE0101960E943B01019719F4898138
:1008300090E0F3CF8FEF9FEFF0CF0F931F93CF9305
:10084000DF931F92CDB7DEB78C01FC0184859585BF
:1008500097FF0BC0CE0101960E943B01019771F4F6
:10086000898190E0F80195878487F80184859585D2
:100870000F90DF91CF911F910F9108958FEF9FEF10
:10088000F1CFFC018485958597FD0BC09FB7F89447
:1008900082E08093E9008091F2009FBF90E0019692
:1008A00008959FB7F89482E08093E9008091F20068
:1008B0009FBF90E0089520910102260F3327331F38
:1008C00021323105ECF420912D03FC0190E080E011
:1008D000243069F082E00895A09101022191AC01D9
:1008E00041525E4FA40FB52FB11D2C930196861770
:1008F00098F380910102680F6093010280E00895EF
:1009000081E0089510922D0381E080932C031092D2
:10091000070361E082E00E94FF0161E083E00E9442
:10092000FF01E9EBF0E080818E7F808380818D7F05
:10093000808388E48093B80085E48093BC000895A8
:10094000CF93DF9391E09093DE018823B9F0C091BB
:10095000B800D091BA008091BC008A7B8093BC0023
:1009600060E082E00E94FF0160E083E00E94FF01FE
:100970000E948204D093BA00C093B800DF91CF9157
:1009800008958F929F92AF92BF92CF92DF92EF9293
:10099000FF920F931F93CF93DF93D0915603D132E1
:1009A00008F0D7C0182FC09155030E945E026B015A
:1009B0007C0180912D0381116BC082E080932D0317
:1009C00010932C038FEF80932B0310922A03D09364
:1009D0002903A5E3B3E0E9E0F3E080E0D81391C098
:1009E0001092080380910803CC0FC82BC093080312
:1009F00080910703813009F088C0109207030E949C
:100A00005E026B017C01809108038093BB008091A2
:100A10002F0390913003A0913103B0913203892BC1
:100A20008A2B8B2BA1F00E945E0200912F03109164
:100A3000300320913103309132036C197D098E0906
:100A40009F09061717072807390708F442C0809145
:100A5000BC0083FDD8CF85EC8093BC000E945E0271
:100A60006B017C0180912D03823009F450C080918C
:100A70002B038F3F09F46FC080912B03803209F460
:100A80006CC080912B03803309F469C084E026C0D8
:100A900080912F0390913003A0913103B0913203E4
:100AA000892B8A2B8B2B09F484CF0E945E028090C5
:100AB0002F0390903003A0903103B09032036C1953
:100AC0007D098E099F0986169706A806B90608F0C3
:100AD00070CF80912E030E94A00485E01092340311
:100AE0001092560310923303DF91CF911F910F9113
:100AF000FF90EF90DF90CF90BF90AF909F908F903E
:100B000008959D9191938F5F69CF85EEA5CF8091D8
:100B10002F0390913003A0913103B0913203892BC0
:100B20008A2B8B2B09F49ECF0E945E0200912F032B
:100B30001091300320913103309132036C197D09FB
:100B40008E099F09061717072807390708F08ACF6B
:100B5000C0CF81E0C3CF80E0C1CF82E0BFCF83E0D0
:100B6000BDCF089508950895E091DD018091DC01E5
:100B7000E81730F4F0E0E454FE4F808190E00895EF
:100B80008FEF9FEF08959091DD018091DC012FEFB1
:100B90003FEF981748F4E92FF0E0E454FE4F20812E
:100BA00030E09F5F9093DD01C90108958091DC01E1
:100BB0009091DD01891B990B0895CF92DF92EF92FE
:100BC000FF920F931F93CF93DF937C01CB018A0198
:100BD00020913303222389F0EB016B01C40ED51E53
:100BE000CC15DD0569F06991D701ED91FC9101907B
:100BF000F081E02DC7010995F3CF642F0E945B04BB
:100C0000C801DF91CF911F910F91FF90EF90DF907E
:100C1000CF900895CF93DF931F92CDB7DEB769834E
:100C2000209133032223F9F020915603203258F00B
:100C300021E030E0FC013383228390E080E00F90DC
:100C4000DF91CF91089580913403E82FF0E0EB5CC1
:100C5000FC4F998190838F5F809334038093560378
:100C600081E090E0ECCF61E0CE0101960E945B0450
:100C7000F7CF90E080E00895CF939091B70199234A
:100C8000C9F0C62F682F81E08093330390935503FA
:100C9000109234031092560387EA93E00E940A06EA
:100CA0006C2F87EA93E00E940A0681E00E94C1044B
:100CB00091E0811190E0892FCF910895CF93DF9338
:100CC0000E949B026093B8017093B9018093BA01AE
:100CD0009093BB011092DD011092DC010E9482040E
:100CE00081EB95E0909300028093FF0182EB95E009
:100CF000909304028093030288E48093B8001092DA
:100D000096021092B701C0E2D1E0D0933303C093B2
:100D10005503109234031092560381E00E94C104DF
:100D2000811112C0C093B7018091B701882309F1E6
:100D30006FEF80E00E943C0681110AC080E0809342
:100D40009602DF91CF910895CF5FC832F1F6ECCFD4
:100D50006FEF81E00E943C06882381F36FE38CE013
:100D60000E943C06882351F36FEF8DE00E943C0601
:100D7000E6CF80E0E6CFCF92DF92EF92FF920F9323
:100D80001F938091B601882319F180912E02811161
:100D90001EC00E949B020091B2011091B3012091EC
:100DA000B4013091B5016B017C01C01AD10AE20A8D
:100DB000F30A9701860140910C0150910D0170E0FA
:100DC00060E081E0041715072607370708F080E088
:100DD0009091900260E0992329F090912E02682F63
:100DE000911161E081E01F910F91FF90EF90DF90F2
:100DF000CF900C94FF011F93CF93DF93C82FD0E0C7
:100E0000FE01E95EFE4F80810E94D60110E001974D
:100E100009F412E0CB5EDE4F88810E94D60121E00A
:100E2000019709F020E0822F812BDF91CF911F9154
:100E300008958091970291E0811101C090E0909314
:100E40002E02882369F081E08093B6010E949B0204
:100E50006093B2017093B3018093B4019093B50194
:100E60000C94BB06FC0101900020E9F73197AF011B
:100E7000481B590BBC0187E593E00C943903CF93D1
:100E8000DF930E94D003EC0186E891E00E943207D4
:100E90008C0F9D1FDF91CF9108958F929F92AF92FB
:100EA000BF920F931F93CF93DF93CDB7DEB7A19778
:100EB0000FB6F894DEBF0FBECDBF19A2423008F4C2
:100EC0004AE08E010F5D1F4F842E912CB12CA12C76
:100ED000A50194010E94A711E62FB901CA01EA30C9
:100EE000F4F4E05DD801EE938D01232B242B252B08
:100EF00079F790E080E0109719F0CD010E94320759
:100F0000A1960FB6F894DEBF0FBECDBFDF91CF9193
:100F10001F910F91BF90AF909F908F900895E95CC3
:100F2000E1CFCF93DF93C82FD62F87EB90E00E94BD
:100F3000D0036C2F70E090E080E04AE00E944D0703
:100F40000E94EB038CEA90E0DD2311F081EB90E04E
:100F5000DF91CF910C943F07CF92DF92EF92FF92F7
:100F60000F931F93CF93DF9380919602811119C045
:100F70000E949B020091B8011091B9012091BA0121
:100F80003091BB01601B710B820B930B643F71406E
:100F900081059105F0F00E945E06809196028823FB
:100FA000C1F0D091B70181E080933303D093550312
:100FB000109234031092560362E187EA93E00E9494
:100FC0000A0680E00E94C104C82F882329F01092ED
:100FD00096028FEF9FEFA5C00E945E026B017C011D
:100FE00080912D03811164C081E080932D03809353
:100FF0002C039FEF90932B0310922A0380932903D5
:101000008093080380910803DD0FD82BD093080349
:1010100080910703813009F08DC0109207030E9470
:101020005E026B017C01809108038093BB0080917C
:101030002F0390913003A0913103B0913203892B9B
:101040008A2B8B2BA1F00E945E0200912F0310913E
:10105000300320913103309132036C197D098E09E0
:101060009F09061717072807390708F442C080911F
:10107000BC0083FDD8CF85EC8093BC000E945E024B
:101080006B017C0180912D03813009F455C0809162
:101090002A03823008F072C080912A03A9E0B3E0ED
:1010A000ECEBF1E0C81749F19D919193CF5FFACF36
:1010B00080912F0390913003A0913103B0913203BE
:1010C000892B8A2B8B2B09F48BCF0E945E02009117
:1010D0002F031091300320913103309132036C19AA
:1010E0007D098E099F09061717072807390708F099
:1010F00077CF80912E030E94A0041092DD01C0934F
:10110000DC01C23009F063CF87EA93E00E94C30597
:10111000C82F87EA93E00E94C30520E0382FC90159
:101120008C2BDF91CF911F910F91FF90EF90DF906B
:10113000CF90089585EEA0CF80912F03909130033A
:10114000A0913103B0913203892B8A2B8B2B09F4A8
:1011500099CF0E945E0200912F03109130032091DD
:101160003103309132036C197D098E099F090617EE
:1011700017072807390708F085CFBBCF82E08ECF4D
:1011800085ED8093BC0080912F0390913003A09156
:101190003103B09132030796A11DB11D23E0B6952E
:1011A000A795979587952A95D1F72091BC0024FDA6
:1011B00003C010922D03089540912F0350913003E6
:1011C0006091310370913203452B462B472B69F315
:1011D0000097A105B10541F02AE22A95F1F700C078
:1011E0000197A109B109E1CF80912E030C94A004CD
:1011F0001F920F920FB60F9211242F933F938F934C
:101200009F93AF93BF938091F1029091F202A091CE
:10121000F302B091F4023091F00223E0230F2D3756
:1012200058F50196A11DB11D2093F0028093F102A3
:101230009093F202A093F302B093F4028091F5022E
:101240009091F602A091F702B091F8020196A11DCB
:10125000B11D8093F5029093F602A093F702B0932C
:10126000F802BF91AF919F918F913F912F910F9075
:101270000FBE0F901F90189526E8230F0296A11D10
:10128000B11DD2CF1F920F920FB60F9211248F93E0
:101290009F938091E1009091E100937F9093E10012
:1012A00083FF0FC01092E90091E09093EB00109241
:1012B000EC0092E39093ED001092060398E0909377
:1012C000F00082FF22C093E09093E9009091F20039
:1012D000992319F09AE39093E80090912B029923B7
:1012E00041F090912B02915090932B02911101C0EB
:1012F0005D9A90910503992341F0909105039150D7
:1013000090930503911101C0289A84FF18C0809121
:10131000E2008E7E81608093E2008091E1008F7E0A
:101320008093E10080912C028E7E806180932C025C
:101330009F918F910F900FBE0F901F90189580FF77
:10134000F7CF8091E2008E7E80618093E2008091F1
:10135000E1008E7E8093E10080912C028E7E816080
:10136000E5CF1F920F920FB60F921124CF92DF920A
:10137000EF92FF920F931F932F933F934F935F939F
:101380006F937F938F939F93AF93BF93EF93FF934D
:10139000CF93DF93CDB7DEB76C97DEBFCDBF109292
:1013A000E9008091E80083FF25C068E0CE01459602
:1013B0000E942C0382EF8093E8008D8987FF39C05B
:1013C0009091E80090FFFCCF982F907609F034C1FF
:1013D0009E894F89588D2F89F88C911131C08038A2
:1013E00061F580912D028093F1001092F1008EEF53
:1013F0008093E8006C960FB6F894DEBF0FBECDBFA9
:10140000DF91CF91FF91EF91BF91AF919F918F911C
:101410007F916F915F914F913F912F911F910F910C
:10142000FF90EF90DF90CF900F900FBE0F901F9026
:1014300018959EEF9093E800C7CF1092F100D5CF9A
:10144000913059F48111D3CF4130510581F680910B
:101450002D028D7F80932D02CACF933049F48111E4
:10146000C6CF4130510519F680912D028260F2CF2E
:10147000953041F48091E80080FFFCCF20682093F4
:10148000E300B5CF963009F0A9C00B8D1C8D22E08A
:101490001092E9001092290210922802F2122EC036
:1014A00010922702109226020E94FB021F8299E0EE
:1014B0009983FA8291E09E8390EA98879AEF9987C0
:1014C0002091280230912902275F3F4F3C832B83D4
:1014D0008D831092E9001092290210922802109335
:1014E00027020093260249E050E0BE016F5F7F4F64
:1014F00080E00E94D5020E94FB0279CF1093270260
:10150000009326020E947601DC0112960D911C9137
:101510000115110509F451C1D801ED91FC91048028
:10152000F581E02DBE016B5E7F4FC80109950097E4
:1015300009F03EC1F80100851185EACFF3E0FF1202
:101540000EC08F89882309F440C0823061F440E8DE
:101550006BE188E291E00E94020D811148CF81E2A7
:101560008093EB0047CF813029F440E86BE08CE1B9
:1015700091E0F1CF833099F70E947601DC01129659
:10158000ED90FC908E010F5F1F4F6801E114F10494
:1015900079F0D701ED91FC910680F781E02DB8013B
:1015A000C7010995080F111DF701E084F184EECF02
:1015B000D8011C92F60101900020E9F73197BF0194
:1015C0006C197D0940E0C601C6CF66E071E0FB0101
:1015D000449150E080E80E94D50209CF973009F489
:1015E000BECF983021F481E08093F10000CF993094
:1015F00009F0FDCE837009F0B2CFEFE0F1E081E0B9
:1016000031E096E32191222371F08093E900309339
:10161000EB00DF0111972C912093EC009093ED00EB
:101620008F5F873079F78EE78093EA001092EA00A7
:101630008F8980930603DBCE8B8D9C8D1092E90001
:10164000109229021092280290932702809326027A
:10165000898D811192C08E899D89913A49F4813298
:1016600009F07DCF47E050E064E071E080E0B3CF67
:10167000913209F074CF833269F48F89988DB0E08C
:10168000A0E08093000190930101A0930201B09328
:101690000301ADCE803269F48091E80082FFFCCF77
:1016A00067E084E091E00E942C038BEF8093E800D8
:1016B0009ECE823209F09BCE8F8980930B01EEEF94
:1016C000FFE7859194918B3F9C4D51F1E0E0F8E06C
:1016D0008091040190910501A0910601B09107014C
:1016E000803B9440A105B105F1F480910B0180FD90
:1016F0001AC0EE3F8AE0F80789F587E797E79183FC
:1017000080838091600080932A0288E19BE00FB67D
:10171000F894A895809360000FBE9093600067CE08
:10172000EEEFFAE0D5CF808191818737974709F0B6
:101730005ECEA89580916000886180936000809162
:101740002A0280936000EE3F2AE0F20789F0809140
:10175000FE0A9091FF0A9183808349CE8081918116
:101760008737980751F29093FF0A8093FE0AC5CFFE
:101770001092FF0A1092FE0A3ACE0E947601DC0116
:1017800012960D911C910115110509F4E8CED801AE
:10179000ED91FC910190F081E02DBE016B5E7F4FD9
:1017A000C8010995811123CEF80100851185EBCF81
:1017B000181619060CF41BCED2CEF1E0FF12BECEE5
:1017C0006AE071E004CF1F920F920FB60F921124BE
:1017D0002F933F934F935F936F937F938F939F9339
:1017E000AF93BF93EF93FF938091B900887F8036CA
:1017F00009F44AC0F0F5883209F4A7C018F5803121
:1018000009F49BC0B8F4882309F4F9C0883009F4BE
:1018100094C0FF91EF91BF91AF919F918F917F9174
:101820006F915F914F913F912F910F900FBE0F904D
:101830001F901895883109F488C0803251F7809341
:101840002B0314C0803409F49DC040F48033B9F3F5
:101850008833F9F680932B0385ECB0C0803509F40A
:1018600085C0883509F496C0883499F60E94C0086E
:10187000D0CF883909F48CC038F5883729F050F476
:10188000883611F0803729F683E080932D0310927B
:10189000250257C0883809F47BC0803919F0803898
:1018A00009F0B7CF80912502803208F071C0E09135
:1018B000250281E08E0F809325028091BB00F0E02D
:1018C000EB5FFD4F80833DC0803B39F0E0F4803A10
:1018D00009F479C0883A09F09CCF84E080932D0305
:1018E0001092020210920102E091FF01F0910002B9
:1018F00009958091010281110FC081E0809301025E
:101900001092DF0109C0803C09F4A6CF883C09F49D
:10191000A3CF883B09F07DCFE091020281E08E0FDA
:1019200080930202F0E0E152FE4F80818093BB0081
:10193000909102028091010229C080910803809356
:10194000BB0085EC8093BC0064CF90912A0380910A
:101950002903981758F5E0912A0381E08E0F8093B0
:101960002A03F0E0E75FFC4F8081E9CFE0912A0392
:1019700081E08E0F80932A038091BB00F0E0E75F47
:10198000FC4F808390912A03809129039817C8F215
:1019900085E8D8CFE0912A0381E08E0F80932A0357
:1019A0008091BB00F0E0E75FFC4F808380912C03C7
:1019B00081115CCF81E08093070384EA8093BC00AF
:1019C00010922D0326CF85EC8093BC0010922D033E
:1019D00080912502803230F4E0912502F0E0EB5F47
:1019E000FD4F10826091250270E0E0910302F091BA
:1019F000040285E092E00995109225020ACF109228
:101A00002B0334CFEF92FF920F931F93CF93DF936B
:101A1000F82E192FE62E042F81E0860F880F0E94E2
:101A2000A70283E00E94A702CF2DD12FEC0EFD2E3E
:101A3000F11CCE15DF05B9F007FF13C0FE0184913C
:101A40000E94A702182F80E00E94A70281232196FE
:101A50008111EFCFDF91CF911F910F91FF90EF9008
:101A600008958881EDCF81E0F5CFE7E5F3E01382BB
:101A7000128288EE93E0A0E0B0E084839583A68391
:101A8000B78326E631E0318320832FEF3FEF3587A0
:101A90002487E7EAF3E01382128284839583A68386
:101AA000B78388E791E0918380830895CF93DF9394
:101AB000CDB7DEB766970FB6F894DEBF0FBECDBFC9
:101AC000789484B5826084BD84B5816084BD85B519
:101AD000826085BD85B5816085BD80916E00816025
:101AE00080936E00109281008091810082608093CB
:101AF00081008091810081608093810080918000CD
:101B00008160809380008091910082608093910039
:101B1000809191008160809391008091900081601C
:101B2000809390008091C10084608093C100809177
:101B3000C10082608093C1008091C1008160809368
:101B4000C1008091C30081608093C3008091C00078
:101B500082608093C0008091C20081608093C20047
:101B600080917A00846080937A0080917A0082600C
:101B700080937A0080917A00816080937A008091CE
:101B80007A00806880937A001092060310922D02EA
:101B900010922C028091D70081608093D70080EA58
:101BA0008093D80089B5806189BD89B5826089BD7F
:101BB00009B400FEFDCF0E9483028091D8008F7C83
:101BC00080618093D8008091E000807F8093E00066
:101BD0008091E1008E7E8093E1008DE08093E200B1
:101BE000559A209A60E085E10E94FF0161E085E15D
:101BF0000E942D0260E081E00E94FF0161E081E02F
:101C00000E942D021092900260E085E10E94FF0187
:101C10000E94BB0610922E020E94BB060E945E0626
:101C20000E949B026B017C010E94AC0720919702ED
:101C3000E8EAF2E0A6E5B1E03D91BC0102C076958C
:101C400067953A95E2F7AB01409550954170408316
:101C50004183C282D382E482F58260FF2F5F369691
:101C600031E0A236B30741F720939702BC01E4E0CC
:101C700076956795EA95E1F7AB01409550954170EF
:101C800040939C0240939D02C0929E02D0929F027C
:101C9000E092A002F092A10260FD03C02F5F2093AA
:101CA000970275E0969587957A95E1F79C012095C6
:101CB000309521702093A2022093A302C092A40227
:101CC000D092A502E092A602F092A70280FD05C084
:101CD000809197028F5F8093970262E082E10E9479
:101CE0002D0262E083E10E942D0280E00E94FB064B
:101CF00080939A021092980262E084E10E942D0281
:101D000062E084E00E942D0281E00E94FB06809345
:101D10009B02109299020E9419078FEF9FEF9093F8
:101D200064038093630384E491E00E94D00389E11B
:101D300091E00E94320786E891E00E94320787E531
:101D400093E00E944104181619060CF0B3C087E511
:101D500093E00E94FF038D3091F3E0918F028A306F
:101D600009F09CC0AE2FB0E0A15DBD4F1C92EE23E8
:101D700029F169E871E08FE292E00E942012892B3C
:101D800001F50E949B0260939102709392028093EE
:101D90009302909394028091950281110BC041E0CF
:101DA000409395024093900261E085E10E94FF011B
:101DB0000E94BB0687E691E00E943F0710928F02C7
:101DC000BECF62E971E08FE292E00E942012892B7F
:101DD00059F58FE491E00E94D00388E291E00E94DF
:101DE00032070E94EB038FE191E00E9432070E94CC
:101DF000EB0389E191E00E9432070E94EB034AE085
:101E00006CE070E080E090E00E944D070E94EB03E0
:101E10004AE062E070E080E090E00E944D0786E8D2
:101E200091E00E943207CACF82E1EFE9F1E0DE01E2
:101E3000119601900D928A95E1F741E150E0BE01C3
:101E40006F5F7F4F8FE292E00E942912892B09F089
:101E5000B5CF4AE050E070E060E080E492E00E949C
:101E6000A0106B017C0151EDC51657E0D506E104C9
:101E7000F10430F060EDC62E67E0D62EE12CF12C97
:101E8000D0920D01C0920C010E94BB0689E591E041
:101E90000E94D0034AE0C701B601BFCFEF3508F07A
:101EA0008DCF91E09E0F90938F02F0E0E15DFD4FAA
:101EB000808345CF809195028823E9F00E949B02A0
:101EC000009191021091920220919302309194021C
:101ED000601B710B820B930B693B7B408105910565
:101EE00050F0109295021092900260E085E10E94FD
:101EF000FF010E94BB060E949B024B015C010E94F5
:101F0000AC077C0180919602882309F4CBC008EAD3
:101F100012E046E5242E41E0342E412C512C3201B2
:101F20004394F10181911F01970102C036952795D5
:101F30008A95E2F7C90180959095F82FF170DF2E10
:101F4000D8019C91F91731F0FC93F80182829382B9
:101F5000A482B582D80111969C911197D916A9F146
:101F600012964D915D916D917C911597D501C401AB
:101F7000841B950BA60BB70B4497A105B10528F15F
:101F8000D8011196DC92809197026901B1E0CB22D1
:101F9000DD2420FDAEC08E3018F48F5F8093970251
:101FA0000E94190788E791E00E94D0034AE0C3012C
:101FB000B2010E944D070E94EB0383E791E0CD2818
:101FC00011F080E791E00E943F070A5F1F4FEFEF9B
:101FD0004E1A5E0A6E0A7E0AFDE04F165104610435
:101FE000710409F09ECF24E5222E21E0322E0CE967
:101FF00012E0412C512C32014394D1018D911D01ED
:10200000970102C0369527958A95E2F7C901809518
:102010009095B82FB170DB2EF8019081B91729F097
:10202000B08382829382A482B582F8019181D9160D
:1020300089F14281538164817581D501C401841B7A
:10204000950BA60BB70B4497A105B10518F1D182EA
:10205000809197026901B1E0CB22DD2420FD54C0BC
:102060008E3018F48F5F809397020E94190789E8D9
:1020700091E00E94D0034AE0C301B2010E944D07E3
:102080000E94EB0384E891E0CD2811F081E891E013
:102090000E943F070A5F1F4FE2E04E1651046104A1
:1020A000710461F58AE9E82E82E0F82E08E912E071
:1020B000C12C8C2D0E94FB06D701ED917D0111975B
:1020C0008C93B4E0EB9FF00111248E2BE82FF0E00D
:1020D000EC5BFE4F8081F8019081890FDD24D39461
:1020E000DC0C8230B4F0108261E08D2D0E949107EB
:1020F00013C0882309F454CF815050CF92E0492E69
:10210000512C612C712C79CF882309F4AECF8150EA
:10211000AACF8F3F94F080830F5F1F4FCC24C394CE
:10212000F2E0DF12C6CF0E94BB0680E090E0892B70
:1021300009F405CE0E94000002CE108260E0D5CFE7
:10214000B0E0A0E0E6EAF0E10C94D5115C016B018F
:102150007A016115710519F0FB0191838083E11407
:10216000F10449F0C7010297839728F060E070E01E
:10217000CB019CC05E01E5012196F5011081812F04
:1021800090E00E948B11892BA9F71D3209F056C0EF
:102190002196F501118101E0E114F10409F4AEC0CA
:1021A000F0E1EF16F10409F08EC0103341F488819C
:1021B0008F7D883509F083C0198122960260E0E1A5
:1021C000EE2EF12C88248A94982CA82CFFE0BF2EA8
:1021D00020E060E070E0CB0127010F2C000C6608C6
:1021E0007708FE0150ED352E310E39E0331538F405
:1021F0003FEB310F3A31A0F549EC342E310E3E144D
:102200001F04BCF52F3FB9F086169706A806B9063D
:1022100070F1A30192010E949711232D30E050E04C
:1022200040E0620F731F841F951F621773078407B6
:102230009507E8F021E021961081D3CF1B3221F4DD
:10224000E5012296F501118100E0A6CF78E0E72EA6
:10225000F12C88248A94982CA82C6FE1B62EB8CF44
:102260003FE9310F3A3128F439EA332EC7CF2FEF47
:10227000E2CFC114D10431F02223E9F02197F60115
:10228000D183C08300FF07C09095809570956195BC
:102290007F4F8F4F9F4F2F3F49F482E290E0909302
:1022A000B4038093B3036FEF7FEFCB01CDB7DEB7FD
:1022B000E1E10C94F11101FFE5CF2297E0CF10E3AB
:1022C000E114F10419F23AE0E316F104E9F080E1D7
:1022D000E816F10409F473CFE8E0EE16F10409F40E
:1022E000B8CF6FEF7FEFCB0197010F2C000C440BA1
:1022F000550B0E94A71149015A016ACF103309F406
:1023000056CF9AE0E92EF12C89E9882E982CA82C3A
:1023100089E1B82E5DCF91110C949411803219F09F
:1023200089508550C8F70895992788270895DB01BB
:102330008F939F930E94C911BF91AF91A29F800D6F
:10234000911DA39F900DB29F900D11240895A1E2BD
:102350001A2EAA1BBB1BFD010DC0AA1FBB1FEE1F1F
:10236000FF1FA217B307E407F50720F0A21BB30B6A
:10237000E40BF50B661F771F881F991F1A9469F7E6
:1023800060957095809590959B01AC01BD01CF0142
:1023900008950E940B12A59F900DB49F900DA49FCD
:1023A000800D911D112408952F923F924F925F92BC
:1023B0006F927F928F929F92AF92BF92CF92DF9255
:1023C000EF92FF920F931F93CF93DF93CDB7DEB7BA
:1023D000CA1BDB0B0FB6F894DEBF0FBECDBF09944E
:1023E0002A88398848885F846E847D848C849B84A5
:1023F000AA84B984C884DF80EE80FD800C811B81B3
:10240000AA81B981CE0FD11D0FB6F894DEBF0FBEE1
:10241000CDBFED010895A29FB001B39FC001A39F5E
:10242000700D811D1124911DB29F700D811D11240D
:10243000911D0895EE0FFF1F0590F491E02D099472
:10244000FB01DC018D91019080190110D9F3990BEA
:102450000895FB01DC014150504030F08D91019016
:10246000801919F40020B9F7881B990B0895F89486
:02247000FFCF9C
:10247200FFFFFFFF00E1000000000000780000C144
:10248200808100000013041214312E312E310048D5
:1024920043442D504C5553004861636B4D616E337C
:1024A2004420436F6E74726F6C204465636B2050DE
:1024B2006C75730000FF0100010000FFFF000001C6
:1024C2000001FF00040508090A0B0C0D0E0F0001A4
:1024D200020300000000BA033903FB03F0034104C6
:1024E200FF031D04000000000A06DD053906B305DE
:1024F200D605C305B4050D0A004843445F50494E52
:1025020047004843445F4745545F494E464F0048A1
:1025120043445F5345545F4C45445F484F4C447CB1
:022522000000B7
:00000001FF
