:100000000C9411010C9439010C9439010C943901B0
:100010000C9439010C9439010C9439010C94390178
:100020000C9439010C9439010C9487090C94F6094D
:100030000C9439010C9439010C9439010C94390158
:100040000C9439010C9439010C9439010C94390148
:100050000C9439010C9439010C9439010C943D092C
:100060000C9439010C9439010C9439010C94390128
:100070000C9439010C9439010C9439010C94390118
:100080000C9439010C9439010C9439010C94390108
:100090000C94280C0C9439010C9439010C943901FE
:1000A0000C9439010C9439010C9439014C45465497
:1000B000005249474854004843445F454E434F442B
:1000C00045527C00080B00020202000009040000F7
:1000D00001020200000524001001052401010104B1
:1000E00024020605240600010705810310004009CB
:1000F000040100020A000000070502024000000798
:100100000583024000000403090412010002EF020B
:1001100001404123368000010102030141726475F0
:10012000696E6F204C4C43004861636B4D616E33C8
:100130004420436F6E74726F6C204465636B205073
:100140006C7573004843445F52454144597C0048F4
:1001500043445F494E464F7C004843445F4C45440E
:100160005F484F4C447C004843445F504F4E47002B
:10017000555000444F574E004843445F4B45597C0F
:1001800000555000444F574E004843445F504F5471
:100190005F425554544F4E7C00000000002400275D
:1001A000002A002D00300000000000250028002B50
:1001B000002E003100000000002300260029002C42
:1001C000002F0004040404040304050202020204D4
:1001D00003020202020606060606060404020202E2
:1001E0000404040802011040804010204080408038
:1001F00008020401804020100201108010204040BD
:10020000200000000200090F0000030401000C00A0
:1002100000000000000000000000000000000000DE
:100220007A0D11241FBECFEFDAE0DEBFCDBF23E091
:10023000A0EFB1E001C01D92A33FB207E1F711E0CA
:10024000A0E0B1E0EAE0F6E202C005900D92A03F26
:10025000B107D9F711E0C1E1D1E004C02197FE0157
:100260000E94E612C031D107C9F70E949B0D0C9481
:1002700003130C940000FC0180914403882311F1C6
:100280003FB7F89482E08093E9002091F200822F3A
:1002900090E01816190614F481E090E0882339F0F4
:1002A000289844E6409343034091F1004083222381
:1002B00039F02091F200211103C02BE62093E800D1
:1002C0003FBF08958FEF9FEF08952FB7F89483E015
:1002D0008093E9009091E800892F807295FF04C017
:1002E0009091F20080E4891B2FBF089580913B0319
:1002F00081110DC082E08093370384E0809338033E
:1003000010923A031092390381E080933B0387E314
:1003100093E0089581508F3008F047C0E82FF0E057
:10032000EC56FE4F0C94E612B101B501A301A901F0
:10033000AD01D501D501D501B801BE01C201C6018B
:10034000CC01D501D001809180008F77809380000F
:100350000895809180008F7DF9CF80918000877F04
:10036000F5CF84B58F7784BD089584B58F7DFBCF9D
:10037000809190008F7780939000089580919000F5
:100380008F7DF9CF80919000877FF5CF8091C0005D
:100390008F778093C00008958091C0008F7DF9CF42
:1003A0008091C200877F8093C2000895CF93DF932E
:1003B000282F30E0F901EF5FFD4F8491F901EE51F4
:1003C000FE4FD491F901ED53FE4FC491CC23A1F01F
:1003D00081110E948A01EC2FF0E0EE0FFF1FEB5419
:1003E000FE4FA591B491EC91ED2381E090E009F4EA
:1003F00080E0DF91CF91089580E090E0FACF1F93E5
:10040000CF93DF93282F30E0F901EF5FFD4F849108
:10041000F901EE51FE4FD491F901ED53FE4FC49115
:10042000CC23A9F0162F81110E948A01EC2FF0E055
:10043000EE0FFF1FE955FE4FA591B4918FB7F894C9
:10044000EC91111108C0D095DE23DC938FBFDF91B2
:10045000CF911F910895DE2BF8CFCF93DF9390E0DB
:10046000FC01EE51FE4F24918D539E4FFC0184916F
:100470008823D1F090E0880F991FFC01E756FE4FCA
:10048000A591B491FC01E955FE4FC591D49162301C
:1004900071F49FB7F8943C91822F809583238C93BD
:1004A000E8812E2B28839FBFDF91CF9108958FB7CE
:1004B000F894EC912E2B2C938FBFF6CF3FB7F89486
:1004C0008091330390913403A0913503B0913603AA
:1004D00026B5A89B05C02F3F19F00196A11DB11D9F
:1004E0003FBFBA2FA92F982F8827BC01CD01620FDB
:1004F000711D811D911D42E0660F771F881F991F96
:100500004A95D1F70895CF92DF92EF92FF920E9421
:100510005E026B017C010E945E026C197D098E09EE
:100520009F09683E734081059105A8F3FF90EF9005
:10053000DF90CF9008952FB7F89460912F037091BA
:10054000300380913103909132032FBF0895409181
:100550006602509167022091640230916502421751
:100560005307B4F49091E8009570E1F39091E8009E
:1005700092FD19C08093F10080916602909167020C
:1005800001968F739927892B19F48EEF8093E800D9
:100590008091660290916702019690936702809322
:1005A000660281E0089580E00895DF92EF92FF9265
:1005B0000F931F93CF93DF93D82E8A01EB017B011A
:1005C000E40EF51ECE15DF0559F0D7FE12C0FE0170
:1005D00084910E94A70221968111F4CF0FEF1FEFA3
:1005E000C801DF91CF911F910F91FF90EF90DF90A5
:1005F00008958881EECF0F931F93CF93DF931F92BF
:10060000CDB7DEB782E0898342E450E064EC70E06D
:1006100080E80E94D5020E947601DC0112960D91BD
:100620001C910115110589F0D801ED91FC91028012
:10063000F381E02DBE016F5F7F4FC801099597FDE3
:1006400004C0F80100851185ECCF89810F90DF91FE
:10065000CF911F910F910895615030F02091F100DA
:10066000FC0120830196F8CF289884E68093430309
:1006700008958F929F92AF92BF92CF92DF92EF92A6
:10068000FF920F931F93CF93DF936C017B018A013D
:1006900080910B01882309F458C08091440388237A
:1006A00009F453C080916A0280FF05C08091E00088
:1006B00082608093E000E801B12C8AEFA82E93E0DD
:1006C000892E2AE3922E209711F4BB20B9F10E94C3
:1006D0006501811106C0AA94AA20B9F10E94830283
:1006E000F2CF8C171D0611F00CF08C2F9FB7F894E9
:1006F0008092E9002091E80025FD02C09FBFE3CF72
:10070000282F30E0C21BD30BF701815020F041911C
:100710004093F100FACFE20EF31EBB2021F090923D
:10072000E800B12CEBCF8091E80085FDE7CF9092F7
:10073000E800BB24B394209709F3F3CF5D9884E6D7
:1007400080936902101611063CF081E090E0F601FA
:100750009383828310E000E0C801DF91CF911F9165
:100760000F91FF90EF90DF90CF90BF90AF909F9050
:100770008F900895CF93DF931F92CDB7DEB7698333
:10078000DC01ED91FC910280F381E02D41E050E02D
:10079000BE016F5F7F4F09950F90DF91CF91089554
:1007A0000F931F93CF93DF938C01D0E0C0E0F8014B
:1007B000EC0FFD1F6491662341F085E993E00E94F0
:1007C000BA03892B11F02196F2CFCE01DF91CF91A0
:1007D0001F910F9108956CE785E993E00C94BA039B
:1007E00083E08093E9008091F200882319F08AE386
:1007F0008093E80008950E94650190E00895CF93EA
:10080000DF931F92CDB7DEB7FC018485958597FDF8
:1008100008C02FEF3FEF358724870F90DF91CF91EE
:100820000895CE0101960E943B01019719F4898138
:1008300090E0F3CF8FEF9FEFF0CF0F931F93CF9305
:10084000DF931F92CDB7DEB78C01FC0184859585BF
:1008500097FF0BC0CE0101960E943B01019771F4F6
:10086000898190E0F80195878487F80184859585D2
:100870000F90DF91CF911F910F9108958FEF9FEF10
:10088000F1CFFC018485958597FD0BC09FB7F89447
:1008900082E08093E9008091F2009FBF90E0019692
:1008A00008959FB7F89482E08093E9008091F20068
:1008B0009FBF90E0089520913F02260F3327331FFA
:1008C00021323105ECF420916B03FC0190E080E0D3
:1008D000243069F082E00895A0913F022191AC019B
:1008E000435E5D4FA40FB52FB11D2C930196861763
:1008F00098F380913F02680F60933F0280E0089573
:1009000081E0089510926B0381E080936A03109256
:10091000450361E082E00E94FF0161E083E00E9404
:10092000FF01E9EBF0E080818E7F808380818D7F05
:10093000808388E48093B80085E48093BC000895A8
:10094000CF93DF9391E090931C028823B9F0C0917C
:10095000B800D091BA008091BC008A7B8093BC0023
:1009600060E082E00E94FF0160E083E00E94FF01FE
:100970000E948204D093BA00C093B800DF91CF9157
:1009800008958F929F92AF92BF92CF92DF92EF9293
:10099000FF920F931F93CF93DF93D0919403D132A3
:1009A00008F0D7C0182FC09193030E945E026B011C
:1009B0007C0180916B0381116BC082E080936B039B
:1009C00010936A038FEF8093690310926803D093AA
:1009D0006703A3E7B3E0E7E4F3E080E0D81391C056
:1009E0001092460380914603CC0FC82BC093460358
:1009F00080914503813009F088C0109245030E9420
:100A00005E026B017C01809146038093BB00809164
:100A10006D0390916E03A0916F03B0917003892BC9
:100A20008A2B8B2BA1F00E945E0200916D03109126
:100A30006E0320916F03309170036C197D098E094C
:100A40009F09061717072807390708F442C0809145
:100A5000BC0083FDD8CF85EC8093BC000E945E0271
:100A60006B017C0180916B03823009F450C080914E
:100A700069038F3F09F46FC080916903803209F4E4
:100A80006CC080916903803309F469C084E026C09A
:100A900080916D0390916E03A0916F03B0917003EC
:100AA000892B8A2B8B2B09F484CF0E945E028090C5
:100AB0006D0390906E03A0906F03B09070036C195B
:100AC0007D098E099F0986169706A806B90608F0C3
:100AD00070CF80916C030E94A00485E01092720395
:100AE0001092940310927103DF91CF911F910F9197
:100AF000FF90EF90DF90CF90BF90AF909F908F903E
:100B000008959D9191938F5F69CF85EEA5CF8091D8
:100B10006D0390916E03A0916F03B0917003892BC8
:100B20008A2B8B2B09F49ECF0E945E0200916D03ED
:100B300010916E0320916F03309170036C197D0941
:100B40008E099F09061717072807390708F08ACF6B
:100B5000C0CF81E0C3CF80E0C1CF82E0BFCF83E0D0
:100B6000BDCF089508950895E0911B0280911A0267
:100B7000E81730F4F0E0E650FE4F808190E00895F1
:100B80008FEF9FEF089590911B0280911A022FEF33
:100B90003FEF981748F4E92FF0E0E650FE4F208130
:100BA00030E09F5F90931B02C901089580911A0263
:100BB00090911B02891B990B0895CF92DF92EF92BF
:100BC000FF920F931F93CF93DF937C01CB018A0198
:100BD00020917103222389F0EB016B01C40ED51E15
:100BE000CC15DD0569F06991D701ED91FC9101907B
:100BF000F081E02DC7010995F3CF642F0E945B04BB
:100C0000C801DF91CF911F910F91FF90EF90DF907E
:100C1000CF900895CF93DF931F92CDB7DEB769834E
:100C2000209171032223F9F020919403203258F08F
:100C300021E030E0FC013383228390E080E00F90DC
:100C4000DF91CF91089580917203E82FF0E0ED5885
:100C5000FC4F998190838F5F8093720380939403FC
:100C600081E090E0ECCF61E0CE0101960E945B0450
:100C7000F7CF90E080E00895CF939091F50199230C
:100C8000C9F0C62F682F81E080937103909393037E
:100C9000109272031092940385EE93E00E940A066C
:100CA0006C2F85EE93E00E940A0681E00E94C10449
:100CB00091E0811190E0892FCF910895CF93DF9338
:100CC0000E949B026093F6017093F7018093F801F4
:100CD0009093F90110921B0210921A020E94820452
:100CE00081EB95E090933E0280933D0282EB95E08C
:100CF000909342028093410288E48093B80010925E
:100D0000D4021092F501C0E2D1E0D0937103C093F8
:100D10009303109272031092940381E00E94C10425
:100D2000811112C0C093F5018091F501882309F16A
:100D30006FEF80E00E943C0681110AC080E0809342
:100D4000D402DF91CF910895CF5FC832F1F6ECCF96
:100D50006FEF81E00E943C06882381F36FE38CE013
:100D60000E943C06882351F36FEF8DE00E943C0601
:100D7000E6CF80E0E6CFCF92DF92EF92FF92CF9363
:100D8000DF93C091F401CC2309F180916C028111B1
:100D90001CC00E949B02C090F001D090F101E09035
:100DA000F201F090F301AB01BC014C195D096E0931
:100DB0007F0980910E0190910F01B0E0A0E0C1E0A9
:100DC000481759076A077B0708F0C0E00E945E02D7
:100DD00020ED37E040E050E00E945F126B017C01A3
:100DE000D091CE02DD2321F020910D01211112C0FE
:100DF00060E085E10E94FF01DD2351F080916C02EB
:100E0000811102C0CC2321F020910C0121111BC0C3
:100E100060E02DC061E02F3F91F030E0A0EDB7E041
:100E20000E94C3122FEF30E040E050E00E945F12BA
:100E300061E0C216D306E406F50608F060E085E13D
:100E40000E94FF01DBCF61E02F3F89F030E0A0ED91
:100E5000B7E00E94C3122FEF30E040E050E00E9464
:100E60005F1261E0C216D306E406F50688F681E05B
:100E7000DF91CF91FF90EF90DF90CF900C94FF0126
:100E80001F93CF93DF93C82FD0E0FE01E75EFE4FA4
:100E900080810E94D60110E0019709F412E0C95E3A
:100EA000DE4F88810E94D60121E0019709F020E001
:100EB000822F812BDF91CF911F9108958091D502D0
:100EC00091E0811101C090E090936C02882369F059
:100ED00081E08093F4010E949B026093F001709383
:100EE000F1018093F2019093F3010C94BB06FC0195
:100EF00001900020E9F73197AF01481B590BBC0165
:100F000085E993E00C943903CF93DF930E94D003DB
:100F1000EC0188E891E00E9477078C0F9D1FDF911C
:100F2000CF9108958F929F92AF92BF920F931F938C
:100F3000CF93DF93CDB7DEB7A1970FB6F894DEBF9E
:100F40000FBECDBF19A2423008F44AE08E010F5DFA
:100F50001F4F842E912CB12CA12CA50194010E942D
:100F60005F12E62FB901CA01EA30F4F4E05DD8015E
:100F7000EE938D01232B242B252B79F790E080E035
:100F8000109719F0CD010E947707A1960FB6F8943B
:100F9000DEBF0FBECDBFDF91CF911F910F91BF90EC
:100FA000AF909F908F900895E95CE1CFCF93DF934E
:100FB000C82FD62F87EB90E00E94D0036C2F70E0F3
:100FC00090E080E04AE00E9492070E94EB038CEAE6
:100FD00090E0DD2311F081EB90E0DF91CF910C9454
:100FE0008407CF92DF92EF92FF920F931F93CF93DC
:100FF000DF938091D402811119C00E949B0200915D
:10100000F6011091F7012091F8013091F901601B70
:10101000710B820B930B643F714081059105F0F0D9
:101020000E945E068091D4028823C1F0D091F50120
:1010300081E080937103D093930310927203109216
:10104000940362E185EE93E00E940A0680E00E942C
:10105000C104C82F882329F01092D4028FEF9FEF8C
:10106000A5C00E945E026B017C0180916B0381111F
:1010700064C081E080936B0380936A039FEF909339
:1010800069031092680380936703809346038091FD
:101090004603DD0FD82BD093460380914503813062
:1010A00009F08DC0109245030E945E026B017C0125
:1010B000809146038093BB0080916D0390916E03F5
:1010C000A0916F03B0917003892B8A2B8B2BA1F019
:1010D0000E945E0200916D0310916E0320916F03D8
:1010E000309170036C197D098E099F090617170747
:1010F0002807390708F442C08091BC0083FDD8CF8F
:1011000085EC8093BC000E945E026B017C018091A3
:101110006B03813009F455C080916803823008F078
:1011200072C080916803A7E4B3E0EAEFF1E0C8176A
:1011300049F19D919193CF5FFACF80916D0390918A
:101140006E03A0916F03B0917003892B8A2B8B2BB8
:1011500009F48BCF0E945E0200916D0310916E0323
:1011600020916F03309170036C197D098E099F09DE
:10117000061717072807390708F077CF80916C0307
:101180000E94A00410921B02C0931A02C23009F000
:1011900063CF85EE93E00E94C305C82F85EE93E0F0
:1011A0000E94C30520E0382FC9018C2BDF91CF911D
:1011B0001F910F91FF90EF90DF90CF90089585EEF3
:1011C000A0CF80916D0390916E03A0916F03B091B9
:1011D0007003892B8A2B8B2B09F499CF0E945E0216
:1011E00000916D0310916E0320916F033091700395
:1011F0006C197D098E099F090617170728073907FB
:1012000008F085CFBBCF82E08ECF85ED8093BC0008
:1012100080916D0390916E03A0916F03B091700364
:101220000796A11DB11D23E0B695A79597958795C3
:101230002A95D1F72091BC0024FD03C010926B03C6
:10124000089540916D0350916E0360916F0370910A
:101250007003452B462B472B69F30097A105B10579
:1012600041F02AE22A95F1F700C00197A109B109DE
:10127000E1CF80916C030C94A0041F920F920FB6E3
:101280000F9211242F933F938F939F93AF93BF930C
:1012900080912F0390913003A0913103B0913203DC
:1012A00030912E0323E0230F2D3758F50196A11D11
:1012B000B11D20932E0380932F0390933003A093AE
:1012C0003103B09332038091330390913403A091A2
:1012D0003503B09136030196A11DB11D80933303F0
:1012E00090933403A0933503B0933603BF91AF912D
:1012F0009F918F913F912F910F900FBE0F901F9054
:10130000189526E8230F0296A11DB11DD2CF1F927A
:101310000F920FB60F9211248F939F938091E1004B
:101320009091E100937F9093E10083FF0FC01092B2
:10133000E90091E09093EB001092EC0092E390931F
:10134000ED001092440398E09093F00082FF22C0D9
:1013500093E09093E9009091F200992319F09AE3B9
:101360009093E80090916902992341F0909169026D
:10137000915090936902911101C05D9A909143033D
:10138000992341F09091430391509093430391111D
:1013900001C0289A84FF18C08091E2008E7E81608F
:1013A0008093E2008091E1008F7E8093E100809144
:1013B0006A028E7E806180936A029F918F910F9066
:1013C0000FBE0F901F90189580FFF7CF8091E2001D
:1013D0008E7E80618093E2008091E1008E7E80931A
:1013E000E10080916A028E7E8160E5CF1F920F92AC
:1013F0000FB60F921124CF92DF92EF92FF920F93CC
:101400001F932F933F934F935F936F937F938F938C
:101410009F93AF93BF93EF93FF93CF93DF93CDB79A
:10142000DEB76C97DEBFCDBF1092E9008091E80077
:1014300083FF25C068E0CE0145960E942C0382EF11
:101440008093E8008D8987FF39C09091E80090FF74
:10145000FCCF982F907609F034C19E894F89588D22
:101460002F89F88C911131C0803861F580916B0221
:101470008093F1001092F1008EEF8093E8006C965B
:101480000FB6F894DEBF0FBECDBFDF91CF91FF91B5
:10149000EF91BF91AF919F918F917F916F915F91EC
:1014A0004F913F912F911F910F91FF90EF90DF90FF
:1014B000CF900F900FBE0F901F9018959EEF9093B6
:1014C000E800C7CF1092F100D5CF913059F48111C7
:1014D000D3CF4130510581F680916B028D7F80938F
:1014E0006B02CACF933049F48111C6CF4130510508
:1014F00019F680916B028260F2CF953041F48091B1
:10150000E80080FFFCCF20682093E300B5CF963041
:1015100009F0A9C00B8D1C8D22E01092E9001092F9
:10152000670210926602F2122EC0109265021092AB
:1015300064020E94FB021F8299E09983FA8291E083
:101540009E8390EA98879AEF99872091660230915E
:101550006702275F3F4F3C832B838D831092E90006
:101560001092670210926602109365020093640263
:1015700049E050E0BE016F5F7F4F80E00E94D502DE
:101580000E94FB0279CF10936502009364020E94CF
:101590007601DC0112960D911C910115110509F4DB
:1015A00051C1D801ED91FC910480F581E02DBE017F
:1015B0006B5E7F4FC8010995009709F03EC1F801A5
:1015C00000851185EACFF3E0FF120EC08F898823D2
:1015D00009F440C0823061F440E86BE188E291E0B8
:1015E0000E94470D811148CF81E28093EB0047CFE5
:1015F000813029F440E86BE08CE191E0F1CF833059
:1016000099F70E947601DC011296ED90FC908E0114
:101610000F5F1F4F6801E114F10479F0D701ED91DC
:10162000FC910680F781E02DB801C7010995080FEC
:10163000111DF701E084F184EECFD8011C92F60170
:1016400001900020E9F73197BF016C197D0940E056
:10165000C601C6CF66E071E0FB01449150E080E82E
:101660000E94D50209CF973009F4BECF983021F4FB
:1016700081E08093F10000CF993009F0FDCE8370B6
:1016800009F0B2CFE1E1F1E081E031E096E32191B0
:10169000222371F08093E9003093EB00DF01119772
:1016A0002C912093EC009093ED008F5F873079F7B9
:1016B0008EE78093EA001092EA008F8980934403BA
:1016C000DBCE8B8D9C8D1092E900109267021092F8
:1016D00066029093650280936402898D811192C0A5
:1016E0008E899D89913A49F4813209F07DCF47E096
:1016F00050E064E071E080E0B3CF913209F074CF44
:10170000833269F48F89988DB0E0A0E08093000166
:1017100090930101A0930201B0930301ADCE8032FA
:1017200069F48091E80082FFFCCF67E084E091E0FB
:101730000E942C038BEF8093E8009ECE823209F04A
:101740009BCE8F8980930B01EEEFFFE785919491FB
:101750008B3F9C4D51F1E0E0F8E0809104019091C5
:101760000501A0910601B0910701803B9440A105BD
:10177000B105F1F480910B0180FD1AC0EE3F8AE0C3
:10178000F80789F587E797E7918380838091600068
:101790008093680288E19BE00FB6F894A895809347
:1017A00060000FBE9093600067CEEEEFFAE0D5CFF9
:1017B000808191818737974709F05ECEA895809107
:1017C000600088618093600080916802809360006F
:1017D000EE3F2AE0F20789F08091FE0A9091FF0A1D
:1017E0009183808349CE808191818737980751F218
:1017F0009093FF0A8093FE0AC5CF1092FF0A1092C1
:10180000FE0A3ACE0E947601DC0112960D911C91DF
:101810000115110509F4E8CED801ED91FC91019074
:10182000F081E02DBE016B5E7F4FC80109958111EB
:1018300023CEF80100851185EBCF181619060CF49C
:101840001BCED2CEF1E0FF12BECE6AE071E004CF33
:101850001F920F920FB60F9211242F933F934F9325
:101860005F936F937F938F939F93AF93BF93EF9308
:10187000FF938091B900887F803609F44AC0F0F563
:10188000883209F4A7C018F5803109F49BC0B8F478
:10189000882309F4F9C0883009F494C0FF91EF91CE
:1018A000BF91AF919F918F917F916F915F914F9178
:1018B0003F912F910F900FBE0F901F901895883178
:1018C00009F488C0803251F78093690314C08034D2
:1018D00009F49DC040F48033B9F38833F9F680935E
:1018E000690385ECB0C0803509F485C0883509F4FA
:1018F00096C0883499F60E940509D0CF883909F43A
:101900008CC038F5883729F050F4883611F08037CC
:1019100029F683E080936B031092630257C08838E6
:1019200009F47BC0803919F0803809F0B7CF809175
:101930006302803208F071C0E091630281E08E0F93
:10194000809363028091BB00F0E0ED5BFD4F8083EC
:101950003DC0803B39F0E0F4803A09F479C0883A20
:1019600009F09CCF84E080936B03109240021092A8
:101970003F02E0913D02F0913E02099580913F02C5
:1019800081110FC081E080933F0210921D0209C0B7
:10199000803C09F4A6CF883C09F4A3CF883B09F02A
:1019A0007DCFE091400281E08E0F80934002F0E015
:1019B000E35EFD4F80818093BB0090914002809157
:1019C0003F0229C0809146038093BB0085EC809341
:1019D000BC0064CF9091680380916703981758F515
:1019E000E091680381E08E0F80936803F0E0E95B8B
:1019F000FC4F8081E9CFE091680381E08E0F8093F6
:101A000068038091BB00F0E0E95BFC4F808390911C
:101A10006803809167039817C8F285E8D8CFE091F2
:101A2000680381E08E0F809368038091BB00F0E033
:101A3000E95BFC4F808380916A0381115CCF81E078
:101A40008093450384EA8093BC0010926B0326CFF9
:101A500085EC8093BC0010926B038091630280320E
:101A600030F4E0916302F0E0ED5BFD4F1082609195
:101A7000630270E0E0914102F091420283E492E05F
:101A80000995109263020ACF1092690334CFEF9246
:101A9000FF920F931F93CF93DF93F82E192FE62E0B
:101AA000042F81E0860F880F0E94A70283E00E9426
:101AB000A702CF2DD12FEC0EFD2EF11CCE15DF0588
:101AC000B9F007FF13C0FE0184910E94A702182FEE
:101AD00080E00E94A702812321968111EFCFDF9140
:101AE000CF911F910F91FF90EF9008958881EDCFD6
:101AF00081E0F5CFE5E9F3E01382128288EE93E00E
:101B0000A0E0B0E084839583A683B78328E631E024
:101B1000318320832FEF3FEF35872487E5EEF3E015
:101B20001382128284839583A683B7838AE791E028
:101B3000918380830895CF93DF93CDB7DEB7C455EB
:101B4000D1090FB6F894DEBF0FBECDBF789484B52F
:101B5000826084BD84B5816084BD85B5826085BDA9
:101B600085B5816085BD80916E00816080936E0037
:101B70001092810080918100826080938100809129
:101B800081008160809381008091800081608093DA
:101B900080008091910082608093910080919100FB
:101BA000816080939100809190008160809390008B
:101BB0008091C10084608093C1008091C1008260E7
:101BC0008093C1008091C10081608093C1008091A9
:101BD000C30081608093C3008091C00082608093C5
:101BE000C0008091C20081608093C20080917A0021
:101BF000846080937A0080917A00826080937A007A
:101C000080917A00816080937A0080917A00806868
:101C100080937A001092440310926B0210926A0231
:101C20008091D70081608093D70080EA8093D800AC
:101C300089B5806189BD89B5826089BD09B400FE1E
:101C4000FDCF0E9483028091D8008F7C80618093B9
:101C5000D8008091E000807F8093E0008091E100D7
:101C60008E7E8093E1008DE08093E200559A209A69
:101C700060E085E10E94FF0161E085E10E942D02A4
:101C800060E081E00E94FF0161E081E00E942D029E
:101C90001092CE020E94BB0610926C020E94BB06FC
:101CA0000E945E060E949B026B017C010E94F1076C
:101CB0002091D50264E671E0E6EEF2E0A8E5B1E03D
:101CC0003D918C0102C0169507953A95E2F7A8015F
:101CD00040955095417040834183C282D382E48213
:101CE000F58200FF2F5F36966A177B0749F720932E
:101CF000D502BC01E4E076956795EA95E1F7AB0182
:101D00004095509541704093DA024093DB02C092B7
:101D1000DC02D092DD02E092DE02F092DF0260FD92
:101D200003C02F5F2093D50265E0969587956A954D
:101D3000E1F79C012095309521702093E0022093DB
:101D4000E102C092E202D092E302E092E402F09259
:101D5000E50280FD05C08091D5028F5F8093D5029A
:101D600062E082E10E942D0262E083E10E942D0286
:101D700080E00E9440078093D8021092D60262E071
:101D800084E10E942D0262E084E00E942D0281E045
:101D90000E9440078093D9021092D7020E945E07EA
:101DA0008FEF9FEF9093A2038093A10384E491E0CF
:101DB0000E94D0038BE191E00E94770788E891E0D0
:101DC0000E94770754E6E52EF12C1FEF01E085E92C
:101DD00093E00E944104181619060CF01EC185E913
:101DE00093E00E94FF038D3091F3E091CD028A30A1
:101DF00009F007C1AE2FB0E0A359BD4F1C92EE23EE
:101E000001F16BE871E08DE692E00E94EC12892B03
:101E1000D9F40E949B026093CF027093D00280930A
:101E2000D1029093D2028091D302811106C0009317
:101E3000D3020093CE020E94BB0687E691E00E9487
:101E400084071092CD02C3CF64E971E08DE692E081
:101E50000E94EC12892B59F58FE491E00E94D00387
:101E60008AE291E00E9477070E94EB0381E291E011
:101E70000E9477070E94EB038BE191E00E947707B5
:101E80000E94EB034AE06CE070E080E090E00E948A
:101E900092070E94EB034AE062E070E080E090E08D
:101EA0000E94920788E891E00E947707CACF82E1FA
:101EB000E1EAF1E0DE01DD9601900D928A95E1F70D
:101EC00041E150E0BE01635C7F4F8DE692E00E94ED
:101ED000F512892B29F54AE050E070E060E08EE7CA
:101EE00092E00E9458114B015C0121ED821627E01F
:101EF0009206A104B10430F040ED842E47E0942E08
:101F0000A12CB12C90920F0180920E010E94BB0671
:101F100089E591E00E94D0034AE0C501B401C0CF39
:101F20008FE1E3EBF1E0DE01119601900D928A95CD
:101F3000E1F74EE150E0BE016F5F7F4F8DE692E02A
:101F40000E94F512892B29F54AE050E070E060E02C
:101F50008BE892E00E945811643671058105910565
:101F6000B0F44AE050E070E060E08BE892E00E945C
:101F70005811653608F064E6619FC0011124B7016D
:101F80000E94D21260930D010E94BB065ACF64E6F4
:101F9000F0CF8DE1E2EDF1E0DE01909601900D923F
:101FA0008A95E1F74CE150E0BE01605E7F4F8DE61F
:101FB00092E00E94F512892B09F043CF4AE050E0ED
:101FC00070E060E089E892E00E9458116436710583
:101FD00081059105A0F44AE050E070E060E089E8F6
:101FE00092E00E945811653608F064E6619FC001D6
:101FF0001124B7010E94D21260930C01C5CF64E690
:10200000F2CFEF3508F01DCF91E09E0F9093CD02F7
:10201000F0E0E359FD4F8083DACE8091D30288232C
:10202000C9F00E949B020091CF021091D002209132
:10203000D1023091D202601B710B820B930B693B72
:102040007B408105910530F01092D3021092CE02B0
:102050000E94BB060E949B024B015C010E94F1079B
:102060006C018091D402882309F4D4C006EE12E0FA
:1020700068E571E061967FAF6EAF6197412C512C9E
:10208000320143946196AEADBFAD61978D9161967B
:10209000BFAFAEAF6197960102C0369527958A957E
:1020A000E2F7C90180959095B82FB1703B2EF801E9
:1020B0009081B91729F0B08382829382A482B5827D
:1020C000F8019181391689F14281538164817581CA
:1020D000D501C401841B950BA60BB70B4497A10532
:1020E000B10518F131828091D5021901B1E02B229E
:1020F000332420FDB6C08E3018F48F5F8093D50254
:102100000E945E0788E791E00E94D0034AE0C30185
:10211000B2010E9492070E94EB0383E791E023281B
:1021200011F080E791E00E9484070A5F1F4FEFEFF4
:102130004E1A5E0A6E0A7E0AFDE04F1651046104D3
:10214000710409F09FCF46E551E061965FAF4EAF55
:1021500061970AED12E0412C512C320143946196B3
:10216000AEADBFAD61978D916196BFAFAEAF6197D8
:10217000960102C0369527958A95E2F7C9018095A8
:102180009095B82FB1703B2EF8019081B91729F0C6
:10219000B08382829382A482B582F801918139163C
:1021A00089F14281538164817581D501C401841B09
:1021B000950BA60BB70B4497A105B10518F1318219
:1021C0008091D5021901B1E02B22332420FD54C0A7
:1021D0008E3018F48F5F8093D5020E945E0789E8E5
:1021E00091E00E94D0034AE0C301B2010E9492072D
:1021F0000E94EB0384E891E0232811F081E891E04C
:102200000E9484070A5F1F4FE2E04E1651046104EA
:10221000710461F588EDC82E82E0D82E06ED12E03B
:10222000A12C8A2D0E944007D601ED916D011197D6
:102230008C93B4E0EB9FF00111248E2BE82FF0E09B
:10224000EA5BFE4F8081F8019081890FBB24B39433
:10225000BA0C8230B4F0108261E08B2D0E94D60758
:1022600013C0882309F44CCF815048CF92E0492E07
:10227000512C612C712C73CF882309F4AECF81507F
:10228000AACF8F3F94F080830F5F1F4FAA24A3949F
:10229000F2E0BF12C6CF0E94BB0680E090E0892B1F
:1022A00009F493CD0E94000090CD108260E0D5CF5C
:1022B000B0E0A0E0EEE5F1E10C948D125C016B0161
:1022C0007A016115710519F0FB0191838083E11496
:1022D000F10449F0C7010297839728F060E070E0AD
:1022E000CB019CC05E01E5012196F5011081812F93
:1022F00090E00E944312892BA9F71D3209F056C0C5
:102300002196F501118101E0E114F10409F4AEC058
:10231000F0E1EF16F10409F08EC0103341F488812A
:102320008F7D883509F083C0198122960260E0E133
:10233000EE2EF12C88248A94982CA82CFFE0BF2E36
:1023400020E060E070E0CB0127010F2C000C660854
:102350007708FE0150ED352E310E39E0331538F493
:102360003FEB310F3A31A0F549EC342E310E3E14DB
:102370001F04BCF52F3FB9F086169706A806B906CC
:1023800070F1A30192010E944F12232D30E050E022
:1023900040E0620F731F841F951F62177307840745
:1023A0009507E8F021E021961081D3CF1B3221F46C
:1023B000E5012296F501118100E0A6CF78E0E72E35
:1023C000F12C88248A94982CA82C6FE1B62EB8CFD3
:1023D0003FE9310F3A3128F439EA332EC7CF2FEFD6
:1023E000E2CFC114D10431F02223E9F02197F601A4
:1023F000D183C08300FF07C090958095709561954B
:102400007F4F8F4F9F4F2F3F49F482E290E0909390
:10241000F2038093F1036FEF7FEFCB01CDB7DEB70F
:10242000E1E10C94A91201FFE5CF2297E0CF10E380
:10243000E114F10419F23AE0E316F104E9F080E165
:10244000E816F10409F473CFE8E0EE16F10409F49C
:10245000B8CF6FEF7FEFCB0197010F2C000C440B2F
:10246000550B0E945F1249015A016ACF103309F4DB
:1024700056CF9AE0E92EF12C89E9882E982CA82CC9
:1024800089E1B82E5DCF91110C944C12803219F075
:1024900089508550C8F70895992788270895DB014A
:1024A0008F939F930E948112BF91AF91A29F800D45
:1024B000911DA39F900DB29F900D11240895A1E24C
:1024C0001A2EAA1BBB1BFD010DC0AA1FBB1FEE1FAE
:1024D000FF1FA217B307E407F50720F0A21BB30BF9
:1024E000E40BF50B661F771F881F991F1A9469F775
:1024F00060957095809590959B01AC01BD01CF01D1
:1025000008950E94C312A59F900DB49F900DA49FA3
:10251000800D911D112408952F923F924F925F924A
:102520006F927F928F929F92AF92BF92CF92DF92E3
:10253000EF92FF920F931F93CF93DF93CDB7DEB748
:10254000CA1BDB0B0FB6F894DEBF0FBECDBF0994DC
:102550002A88398848885F846E847D848C849B8433
:10256000AA84B984C884DF80EE80FD800C811B8141
:10257000AA81B981CE0FD11D0FB6F894DEBF0FBE70
:10258000CDBFED010895A29FB001B39FC001A39FED
:10259000700D811D1124911DB29F700D811D11249C
:1025A000911D0895AA1BBB1B51E107C0AA1FBB1FA9
:1025B000A617B70710F0A61BB70B881F991F5A95CF
:1025C000A9F780959095BC01CD010895EE0FFF1FEE
:1025D0000590F491E02D0994FB01DC018D910190AF
:1025E00080190110D9F3990B0895FB01DC014150CA
:1025F000504030F08D910190801919F40020B9F706
:0A260000881B990B0895F894FFCF92
:10260A00FFFFFFFF00E1000000000000FFFF78006D
:10261A0000C1808100000013041214312E312E32C1
:10262A00004843442D504C5553004861636B4D613B
:10263A006E334420436F6E74726F6C204465636B13
:10264A0020506C75730000FF0100010000FFFF00BD
:10265A0000010001FF00040508090A0B0C0D0E0F0A
:10266A000001020300000000BA033903FB03F00370
:10267A004104FF031D04000000000A06DD053906B7
:10268A00B305D605C305B4050D0A004843445F5097
:10269A00494E47004843445F4745545F494E464FB9
:1026AA00004843445F5345545F4C45445F484F4C90
:1026BA00447C004843445F5345545F434F4E4E4564
:1026CA004354494F4E5F4252494748544E4553532B
:1026DA007C004843445F5345545F46454544424164
:1026EA00434B5F4252494748544E4553537C00007E
:00000001FF
