:100000000C94F7000C941F010C941F010C941F0119
:100010000C941F010C941F010C941F010C941F01E0
:100020000C941F010C941F010C9462050C94D105D3
:100030000C941F010C941F010C941F010C941F01C0
:100040000C941F010C941F010C941F010C941F01B0
:100050000C941F010C941F010C941F010C941805A3
:100060000C941F010C941F010C941F010C941F0190
:100070000C941F010C941F010C941F010C941F0180
:100080000C941F010C941F010C941F010C941F0170
:100090000C941F010C941F010C941F010C941F0160
:1000A0000C941F010C941F010C941F01080B0002FB
:1000B0000202000009040000010202000005240001
:1000C0001001052401010104240206052406000193
:1000D0000705810310004009040100020A00000026
:1000E00007050202400000070583024000000403E8
:1000F000090412010002EF02014041233680000191
:100100000102030141726475696E6F204C4C43001B
:100110004861636B4D616E334420436F6E74726F40
:100120006C204465636B004843445F524541445929
:100130007C004843445F494E464F7C004843445F3F
:100140004C45445F484F4C447C004843445F504F0B
:100150004E4700555000444F574E004843445F4BB4
:1001600045597C0000000000240027002A002D00D3
:10017000300000000000250028002B002E00310078
:10018000000000002300260029002C002F0004049A
:100190000404040304050202020204030202020230
:1001A0000606060606060404020202040404080207
:1001B00001104080401020408040800802040180EF
:1001C000402010020110801020404020000000025A
:1001D00000090F0000030401000C000000000000F3
:1001E000000000000000000000000000530A11247D
:1001F0001FBECFEFDAE0DEBFCDBF22E0A2E8B1E064
:1002000001C01D92A738B207E1F711E0A0E0B1E00C
:10021000E2E0F8E102C005900D92A238B107D9F7EB
:1002200010E0C7EFD0E004C02197FE010E94E20B6E
:10023000C63FD107C9F70E9403080C94FF0B0C942A
:100240000000FC0180913402882311F13FB7F8943B
:1002500082E08093E9002091F200822F90E018164E
:10026000190614F481E090E0882339F0289844E6D8
:10027000409333024091F1004083222339F02091D2
:10028000F200211103C02BE62093E8003FBF089540
:100290008FEF9FEF08952FB7F89483E08093E900E4
:1002A0009091E800892F807295FF04C09091F20030
:1002B00080E4891B2FBF089580912B0281110DC00E
:1002C00082E08093270284E08093280210922A0221
:1002D0001092290281E080932B0287E292E0089538
:1002E00081508F3008F047C0E82FF0E0E658FE4F0D
:1002F0000C94E20B97019B0189018F019301BB01D3
:10030000BB01BB019E01A401A801AC01B201BB016C
:10031000B601809180008F7780938000089580914E
:1003200080008F7DF9CF80918000877FF5CF84B5E5
:100330008F7784BD089584B58F7DFBCF8091900029
:100340008F77809390000895809190008F7DF9CFF2
:1003500080919000877FF5CF8091C0008F77809348
:10036000C00008958091C0008F7DF9CF8091C200B8
:10037000877F8093C2000895CF93DF93282F30E0CA
:10038000F901E453FE4F8491F901E355FE4FD491F6
:10039000F901E257FE4FC491CC23A1F081110E94D4
:1003A0007001EC2FF0E0EE0FFF1FE058FE4FA5911B
:1003B000B491EC91ED2381E090E009F480E0DF91CD
:1003C000CF91089580E090E0FACF1F93CF93DF9311
:1003D000282F30E0F901E453FE4F8491F901E355F1
:1003E000FE4FD491F901E257FE4FC491CC23A9F0FE
:1003F000162F81110E947001EC2FF0E0EE0FFF1F0D
:10040000EE58FE4FA591B4918FB7F894EC9111116D
:1004100008C0D095DE23DC938FBFDF91CF911F9171
:100420000895DE2BF8CFCF93DF9390E0FC01E355E6
:10043000FE4F249182579E4FFC0184918823D1F076
:1004400090E0880F991FFC01EC59FE4FA591B491E3
:10045000FC01EE58FE4FC591D491623071F49FB704
:10046000F8943C91822F809583238C93E8812E2BE6
:1004700028839FBFDF91CF9108958FB7F894EC91B7
:100480002E2B2C938FBFF6CF3FB7F8948091230289
:1004900090912402A0912502B091260226B5A89B36
:1004A00005C02F3F19F00196A11DB11D3FBFBA2F06
:1004B000A92F982F8827BC01CD01620F711D811DC6
:1004C000911D42E0660F771F881F991F4A95D1F74B
:1004D0000895CF92DF92EF92FF920E9444026B0147
:1004E0007C010E9444026C197D098E099F09683EB7
:1004F000734081059105A8F3FF90EF90DF90CF90B6
:1005000008952FB7F89460911F0270912002809196
:100510002102909122022FBF0895409189015091AC
:100520008A01209187013091880142175307B4F462
:100530009091E8009570E1F39091E80092FD19C068
:100540008093F1008091890190918A0101968F73C7
:100550009927892B19F48EEF8093E8008091890107
:1005600090918A01019690938A018093890181E09C
:10057000089580E00895EF92FF920F931F93CF9319
:10058000DF93F82E192FE62E042F81E0860F880FB7
:100590000E948D0283E00E948D02CF2DD12FEC0EA0
:1005A000FD2EF11CCE15DF05B9F007FF13C0FE01CB
:1005B00084910E948D02182F80E00E948D02812379
:1005C00021968111EFCFDF91CF911F910F91FF9075
:1005D000EF9008958881EDCF81E0F5CFDF92EF9223
:1005E000FF920F931F93CF93DF93D82E8A01EB01D5
:1005F0007B01E40EF51ECE15DF0559F0D7FE12C0C3
:10060000FE0184910E948D0221968111F4CF0FEF9B
:100610001FEFC801DF91CF911F910F91FF90EF90D5
:10062000DF9008958881EECF0F931F93CF93DF93D0
:100630001F92CDB7DEB782E0898342E450E06CEAD6
:1006400070E080E80E94EE020E945C01DC011296DC
:100650000D911C910115110589F0D801ED91FC91C6
:100660000280F381E02DBE016F5F7F4FC8010995C5
:1006700097FD04C0F80100851185ECCF89810F90AA
:10068000DF91CF911F910F910895615030F020912B
:10069000F100FC0120830196F8CF289884E680932E
:1006A000330208958F929F92AF92BF92CF92DF92C2
:1006B000EF92FF920F931F93CF93DF936C017B0117
:1006C0008A0180910B01882309F458C0809134027B
:1006D000882309F453C080918D0180FF05C080916B
:1006E000E00082608093E000E801B12C8AEFA82E40
:1006F00093E0892E2AE3922E209711F4BB20B9F1C2
:100700000E944B01811106C0AA94AA20B9F10E944F
:100710006902F2CF8C171D0611F00CF08C2F9FB7D9
:10072000F8948092E9002091E80025FD02C09FBF67
:10073000E3CF282F30E0C21BD30BF701815020F00C
:1007400041914093F100FACFE20EF31EBB2021F05D
:100750009092E800B12CEBCF8091E80085FDE7CFC7
:100760009092E800BB24B394209709F3F3CF5D98EF
:1007700084E680938C01101611063CF081E090E035
:10078000F6019383828310E000E0C801DF91CF91EE
:100790001F910F91FF90EF90DF90CF90BF90AF909F
:1007A0009F908F900895CF93DF931F92CDB7DEB7C0
:1007B0006983DC01ED91FC910280F381E02D41E041
:1007C00050E0BE016F5F7F4F09950F90DF91CF9191
:1007D00008950F931F93CF93DF938C01D0E0C0E077
:1007E000F801EC0FFD1F6491662341F085E392E070
:1007F0000E94D303892B11F02196F2CFCE01DF9115
:10080000CF911F910F9108956CE785E392E00C94CE
:10081000D30383E08093E9008091F200882319F0EC
:100820008AE38093E80008950E944B0190E00895C8
:10083000CF93DF931F92CDB7DEB7FC0184859585FA
:1008400097FD08C02FEF3FEF358724870F90DF918A
:10085000CF910895CE0101960E942101019719F4CC
:10086000898190E0F3CF8FEF9FEFF0CF0F931F932D
:10087000CF93DF931F92CDB7DEB78C01FC01848547
:10088000958597FF0BC0CE0101960E94210101972B
:1008900071F4898190E0F80195878487F801848557
:1008A00095850F90DF91CF911F910F9108958FEF54
:1008B0009FEFF1CFFC018485958597FD0BC09FB715
:1008C000F89482E08093E9008091F2009FBF90E06D
:1008D000019608959FB7F89482E08093E900809193
:1008E000F2009FBF90E00895CF92DF92EF92FF92C7
:1008F0000F931F9380918601882319F180918F01B6
:1009000081111EC00E948102009182011091830119
:1009100020918401309185016B017C01C01AD10ABC
:10092000E20AF30A9701860140910C0150910D01F2
:1009300070E060E081E0041715072607370708F02C
:1009400080E09091E10160E0992329F090918F017E
:10095000682F911161E081E01F910F91FF90EF905E
:10096000DF90CF900C94E50180938F01882369F08C
:1009700081E0809386010E948102609382017093DE
:10098000830180938401909385010C947404FC018D
:1009900001900020E9F73197AF01481B590BBC01CA
:1009A00085E392E00C9452038F929F92AF92BF9294
:1009B0000F931F93CF93DF93CDB7DEB7A1970FB6F9
:1009C000F894DEBF0FBECDBF19A2423008F44AE052
:1009D0008E010F5D1F4F842E912CB12CA12CA501EF
:1009E00094010E946F0BE62FB901CA01EA30F4F4BA
:1009F000E05DD801EE938D01232B242B252B79F775
:100A000090E080E0109719F0CD010E94C704A196F4
:100A10000FB6F894DEBF0FBECDBFDF91CF911F910F
:100A20000F91BF90AF909F908F900895E95CE1CFB8
:100A30001F920F920FB60F9211242F933F938F9313
:100A40009F93AF93BF9380911F0290912002A0913A
:100A50002102B091220230911E0223E0230F2D3794
:100A600058F50196A11DB11D20931E0280931F020F
:100A700090932002A0932102B0932202809123023E
:100A800090912402A0912502B09126020196A11D09
:100A9000B11D8093230290932402A0932502B0936A
:100AA0002602BF91AF919F918F913F912F910F900F
:100AB0000FBE0F901F90189526E8230F0296A11DD8
:100AC000B11DD2CF1F920F920FB60F9211248F93A8
:100AD0009F938091E1009091E100937F9093E100DA
:100AE00083FF0FC01092E90091E09093EB00109209
:100AF000EC0092E39093ED001092340298E0909312
:100B0000F00082FF22C093E09093E9009091F20000
:100B1000992319F09AE39093E80090918C0199231E
:100B200041F090918C01915090938C01911101C0F2
:100B30005D9A90913302992341F090913302915044
:100B400090933302911101C0289A84FF18C08091BC
:100B5000E2008E7E81608093E2008091E1008F7ED2
:100B60008093E10080918D018E7E806180938D0164
:100B70009F918F910F900FBE0F901F90189580FF3F
:100B8000F7CF8091E2008E7E80618093E2008091B9
:100B9000E1008E7E8093E10080918D018E7E8160E8
:100BA000E5CF1F920F920FB60F921124CF92DF92D2
:100BB000EF92FF920F931F932F933F934F935F9367
:100BC0006F937F938F939F93AF93BF93EF93FF9315
:100BD000CF93DF93CDB7DEB76C97DEBFCDBF10925A
:100BE000E9008091E80083FF25C068E0CE014596CA
:100BF0000E94450382EF8093E8008D8987FF39C00A
:100C00009091E80090FFFCCF982F907609F034C1C6
:100C10009E894F89588D2F89F88C911131C0803869
:100C200061F580918E018093F1001092F1008EEFBA
:100C30008093E8006C960FB6F894DEBF0FBECDBF70
:100C4000DF91CF91FF91EF91BF91AF919F918F91E4
:100C50007F916F915F914F913F912F911F910F91D4
:100C6000FF90EF90DF90CF900F900FBE0F901F90EE
:100C700018959EEF9093E800C7CF1092F100D5CF62
:100C8000913059F48111D3CF4130510581F68091D3
:100C90008E018D7F80938E01CACF933049F48111EC
:100CA000C6CF4130510519F680918E018260F2CF96
:100CB000953041F48091E80080FFFCCF20682093BC
:100CC000E300B5CF963009F0A9C00B8D1C8D22E052
:100CD0001092E90010928A0110928901F2122EC03E
:100CE00010928801109287010E9414031F8299E0DC
:100CF0009983FA8291E09E8390EA98879AEF998788
:100D00002091890130918A01275F3F4F3C832B83DB
:100D10008D831092E90010928A011092890110933C
:100D200088010093870149E050E0BE016F5F7F4F6B
:100D300080E00E94EE020E94140379CF1093880194
:100D4000009387010E945C01DC0112960D911C91B9
:100D50000115110509F451C1D801ED91FC910480F0
:100D6000F581E02DBE016B5E7F4FC80109950097AC
:100D700009F03EC1F80100851185EACFF3E0FF12CA
:100D80000EC08F89882309F440C0823061F440E8A6
:100D900066E180E191E00E94BB02811148CF81E2CF
:100DA0008093EB0047CF813029F440E86BE084E08A
:100DB00091E0F1CF833099F70E945C01DC0112963B
:100DC000ED90FC908E010F5F1F4F6801E114F1045C
:100DD00079F0D701ED91FC910680F781E02DB80103
:100DE000C7010995080F111DF701E084F184EECFCA
:100DF000D8011C92F60101900020E9F73197BF015C
:100E00006C197D0940E0C601C6CF6EEE70E0FB01B3
:100E1000449150E080E80E94EE0209CF973009F437
:100E2000BECF983021F481E08093F10000CF99305B
:100E300009F0FDCE837009F0B2CFE1E2F1E081E08C
:100E400031E096E32191222371F08093E900309301
:100E5000EB00DF0111972C912093EC009093ED00B3
:100E60008F5F873079F78EE78093EA001092EA006F
:100E70008F8980933402DBCE8B8D9C8D1092E9009C
:100E800010928A01109289019093880180938701C2
:100E9000898D811192C08E899D89913A49F4813260
:100EA00009F07DCF47E050E064E071E080E0B3CF2F
:100EB000913209F074CF833269F48F89988DB0E054
:100EC000A0E08093000190930101A0930201B093F0
:100ED0000301ADCE803269F48091E80082FFFCCF3F
:100EE00067E084E091E00E9445038BEF8093E80087
:100EF0009ECE823209F09BCE8F8980930B01EEEF5C
:100F0000FFE7859194918B3F9C4D51F1E0E0F8E033
:100F10008091040190910501A0910601B091070113
:100F2000803B9440A105B105F1F480910B0180FD57
:100F30001AC0EE3F8AE0F80789F587E797E79183C3
:100F400080838091600080938B0188E19BE00FB6E5
:100F5000F894A895809360000FBE9093600067CED0
:100F6000EEEFFAE0D5CF808191818737974709F07E
:100F70005ECEA8958091600088618093600080912A
:100F80008B0180936000EE3F2AE0F20789F08091A8
:100F9000FE0A9091FF0A9183808349CE80819181DE
:100FA0008737980751F29093FF0A8093FE0AC5CFC6
:100FB0001092FF0A1092FE0A3ACE0E945C01DC01F8
:100FC00012960D911C910115110509F4E8CED80176
:100FD000ED91FC910190F081E02DBE016B5E7F4FA1
:100FE000C8010995811123CEF80100851185EBCF49
:100FF000181619060CF41BCED2CEF1E0FF12BECEAD
:1010000062EF70E004CFCF93DF93CDB7DEB7669782
:101010000FB6F894DEBF0FBECDBF789484B5826062
:1010200084BD84B5816084BD85B5826085BD85B58C
:10103000816085BD80916E00816080936E0010920A
:101040008100809181008260809381008091810085
:101050008160809381008091800081608093800016
:1010600080919100826080939100809191008160D5
:101070008093910080919000816080939000809196
:10108000C10084608093C1008091C1008260809320
:10109000C1008091C10081608093C1008091C30034
:1010A00081608093C3008091C00082608093C00003
:1010B0008091C20081608093C20080917A00846038
:1010C00080937A0080917A00826080937A00809188
:1010D0007A00816080937A0080917A0080688093A2
:1010E0007A001092340210928E0110928D0180913C
:1010F000D70081608093D70080EA8093D80089B5BB
:10110000806189BD89B5826089BD09B400FEFDCFCB
:101110000E9469028091D8008F7C80618093D80002
:101120008091E000807F8093E0008091E1008E7EDE
:101130008093E1008DE08093E200559A209A60E070
:1011400085E10E94E50161E085E10E94130260E013
:1011500081E00E94E50161E081E00E9413021092AB
:10116000E10160E085E10E94E5010E9474041092B3
:101170008F010E9474040E9481024B015C0108EE01
:1011800011E04DE4E42E41E0F42ED701DD907D0125
:1011900062E08D2D0E9413028D2D0E94BC019C01E6
:1011A00091E02115310509F090E0F80190839183D9
:1011B00082829382A482B5829091E701232B21F44D
:1011C00081E0890F8093E7010A5F1F4FB6E5EB16B8
:1011D000B1E0FB06D1F681E09091E701911101C0E9
:1011E00080E00E94B4048FEF9FEF909342028093BF
:1011F000410287E291E00E94E90387E291E00E94C8
:10120000C70486E591E00E94C70430E0232E30E059
:10121000332E85E392E00E945A04181619060CF04A
:10122000A9C085E392E00E9418048D3091F3E0910B
:10123000E0018A3009F092C0AE2FB0E0A057BE4F57
:101240001C92EE2349F169E571E080E991E00E948A
:10125000E80B892B21F50E9481026093E2017093D3
:10126000E3018093E4019093E5018091E60181110F
:101270000BC0E1E0E093E601E093E10161E085E18C
:101280000E94E5010E9474048AE491E00E94E9034F
:1012900086E591E00E94C7041092E001BACF62E6B1
:1012A00071E080E991E00E94E80B892BF1F482E380
:1012B00091E00E94E90386E391E00E94C7040E9446
:1012C00004048DE291E00E94C7040E94040487E2B6
:1012D00091E00E94C7040E9404044AE069E070E0C3
:1012E00080E090E00E94D404D3CF82E1EFE6F1E009
:1012F000DE01119601900D928A95E1F741E150E0EF
:10130000BE016F5F7F4F80E991E00E94F10B892B56
:1013100019F64AE050E070E060E081EA91E00E9456
:10132000680A6B017C01F1EDCF16F7E0DF06E104FE
:10133000F10430F020EDC22E27E0D22EE12CF12C6A
:10134000D0920D01C0920C010E9474048CE391E0D4
:101350000E94E9034AE0C701B601C4CFEF3408F0A8
:101360009BCF91E09E0F9093E001F0E0E057FE4F9D
:1013700080834FCF8091E6018823E9F00E948102AB
:101380000091E2011091E3012091E4013091E50127
:10139000601B710B820B930B693B7B4081059105B0
:1013A00050F01092E6011092E10160E085E10E94A8
:1013B000E5010E9474040E9481022B013C0108EEA9
:1013C00011E08DE4A82E81E0B82EC12CD12C76013D
:1013D000C394D5018D915D010E94BC014C0161E077
:1013E000892B09F060E0F8019081691729F060838A
:1013F0004282538264827582F80191816917C1F13A
:101400002281338144815581D301C201821B930B18
:10141000A40BB50B4497A105B10550F161838091F0
:10142000E70181149104D9F5893018F48F5F809316
:10143000E70181E09091E701911101C080E00E94F5
:10144000B4048BE591E00E94E9034AE0C701B601CC
:101450000E94D4040E94040486E591E0892811F0DA
:1014600083E591E00E94E90386E591E00E94C704CC
:101470000A5F1F4FBFEFCB1ADB0AEB0AFB0AEAE059
:10148000CE16D104E104F10409F0A3CF0E94740444
:101490002114310409F4BDCE0E940000BACE882385
:1014A00041F28150C4CFE5E3F2E01382128288EE6C
:1014B00093E0A0E0B0E084839583A683B78382E1C4
:1014C00091E0918380838FEF9FEF958784870895C4
:1014D000B0E0A0E0EEE6FAE00C949D0B5C016B013D
:1014E0007A016115710519F0FB0191838083E11484
:1014F000F10449F0C7010297839728F060E070E09B
:10150000CB019CC05E01E5012196F5011081812F80
:1015100090E00E94530B892BA9F71D3209F056C0A9
:101520002196F501118101E0E114F10409F4AEC046
:10153000F0E1EF16F10409F08EC0103341F4888118
:101540008F7D883509F083C0198122960260E0E121
:10155000EE2EF12C88248A94982CA82CFFE0BF2E24
:1015600020E060E070E0CB0127010F2C000C660842
:101570007708FE0150ED352E310E39E0331538F481
:101580003FEB310F3A31A0F549EC342E310E3E14C9
:101590001F04BCF52F3FB9F086169706A806B906BA
:1015A00070F1A30192010E945F0B232D30E050E007
:1015B00040E0620F731F841F951F62177307840733
:1015C0009507E8F021E021961081D3CF1B3221F45A
:1015D000E5012296F501118100E0A6CF78E0E72E23
:1015E000F12C88248A94982CA82C6FE1B62EB8CFC1
:1015F0003FE9310F3A3128F439EA332EC7CF2FEFC4
:10160000E2CFC114D10431F02223E9F02197F60191
:10161000D183C08300FF07C0909580957095619538
:101620007F4F8F4F9F4F2F3F49F482E290E090937E
:101630008602809385026FEF7FEFCB01CDB7DEB7D7
:10164000E1E10C94B90B01FFE5CF2297E0CF10E365
:10165000E114F10419F23AE0E316F104E9F080E153
:10166000E816F10409F473CFE8E0EE16F10409F48A
:10167000B8CF6FEF7FEFCB0197010F2C000C440B1D
:10168000550B0E946F0B49015A016ACF103309F4C0
:1016900056CF9AE0E92EF12C89E9882E982CA82CB7
:1016A00089E1B82E5DCF91110C945C0B803219F05A
:1016B00089508550C8F70895992788270895DB0138
:1016C0008F939F930E94910BBF91AF91A29F800D2A
:1016D000911DA39F900DB29F900D11240895A1E23A
:1016E0001A2EAA1BBB1BFD010DC0AA1FBB1FEE1F9C
:1016F000FF1FA217B307E407F50720F0A21BB30BE7
:10170000E40BF50B661F771F881F991F1A9469F762
:1017100060957095809590959B01AC01BD01CF01BE
:1017200008950E94D30BA59F900DB49F900DA49F88
:10173000800D911D112408952F923F924F925F9238
:101740006F927F928F929F92AF92BF92CF92DF92D1
:10175000EF92FF920F931F93CF93DF93CDB7DEB736
:10176000CA1BDB0B0FB6F894DEBF0FBECDBF0994CA
:101770002A88398848885F846E847D848C849B8421
:10178000AA84B984C884DF80EE80FD800C811B812F
:10179000AA81B981CE0FD11D0FB6F894DEBF0FBE5E
:1017A000CDBFED010895A29FB001B39FC001A39FDB
:1017B000700D811D1124911DB29F700D811D11248A
:1017C000911D0895EE0FFF1F0590F491E02D0994EF
:1017D000FB01DC018D91019080190110D9F3990B67
:1017E0000895FB01DC014150504030F08D91019093
:1017F000801919F40020B9F7881B990B0895F89403
:02180000FFCF18
:10180200FFFFFFFF00E10000000000007800000081
:101812000000D3035203140409045A0418043604C2
:1018220000C18081000000312E372E300048434431
:101832002D42415345004861636B4D616E33442034
:10184200436F6E74726F6C204465636B0004030215
:101852000706050A09080D0A004843445F50494E2D
:1018620047004843445F4745545F494E464F00484E
:1018720043445F5345545F4C45445F484F4C447C5E
:02188200000064
:00000001FF
